{
  "contractName": "Dice_SC",
  "abi": [
    {
      "constant": true,
      "inputs": [],
      "name": "revealWindow",
      "outputs": [
        {
          "name": "",
          "type": "uint256"
        }
      ],
      "payable": false,
      "stateMutability": "view",
      "type": "function"
    },
    {
      "constant": true,
      "inputs": [
        {
          "name": "",
          "type": "bytes32"
        }
      ],
      "name": "roundIdentifier_to_diceInfo",
      "outputs": [
        {
          "name": "positive",
          "type": "address"
        },
        {
          "name": "negative",
          "type": "address"
        },
        {
          "name": "betMask",
          "type": "uint256"
        },
        {
          "name": "modulo",
          "type": "uint256"
        },
        {
          "name": "initiatorHashR",
          "type": "bytes32"
        },
        {
          "name": "acceptorR",
          "type": "bytes32"
        },
        {
          "name": "state",
          "type": "uint8"
        },
        {
          "name": "lastRevealBlock",
          "type": "uint256"
        }
      ],
      "payable": false,
      "stateMutability": "view",
      "type": "function"
    },
    {
      "inputs": [
        {
          "name": "_revealWindow",
          "type": "uint256"
        }
      ],
      "payable": false,
      "stateMutability": "nonpayable",
      "type": "constructor"
    },
    {
      "anonymous": false,
      "inputs": [
        {
          "indexed": true,
          "name": "initiator",
          "type": "address"
        },
        {
          "indexed": true,
          "name": "acceptor",
          "type": "address"
        },
        {
          "indexed": false,
          "name": "roundIdentifier",
          "type": "bytes32"
        },
        {
          "indexed": false,
          "name": "winner",
          "type": "address"
        }
      ],
      "name": "InitiatorSettled",
      "type": "event"
    },
    {
      "anonymous": false,
      "inputs": [
        {
          "indexed": true,
          "name": "initiator",
          "type": "address"
        },
        {
          "indexed": true,
          "name": "acceptor",
          "type": "address"
        },
        {
          "indexed": false,
          "name": "roundIdentifier",
          "type": "bytes32"
        },
        {
          "indexed": false,
          "name": "lastRevealBlock",
          "type": "uint256"
        }
      ],
      "name": "AcceptorSettled",
      "type": "event"
    },
    {
      "anonymous": false,
      "inputs": [
        {
          "indexed": true,
          "name": "initiator",
          "type": "address"
        },
        {
          "indexed": true,
          "name": "acceptor",
          "type": "address"
        },
        {
          "indexed": false,
          "name": "roundIdentifier",
          "type": "bytes32"
        },
        {
          "indexed": false,
          "name": "winner",
          "type": "address"
        }
      ],
      "name": "InitiatorRevealed",
      "type": "event"
    },
    {
      "constant": false,
      "inputs": [
        {
          "name": "channelIdentifier",
          "type": "bytes32"
        },
        {
          "name": "round",
          "type": "uint256"
        },
        {
          "name": "betMask",
          "type": "uint256"
        },
        {
          "name": "modulo",
          "type": "uint256"
        },
        {
          "name": "positive",
          "type": "address"
        },
        {
          "name": "negative",
          "type": "address"
        },
        {
          "name": "initiatorHashR",
          "type": "bytes32"
        },
        {
          "name": "initiatorSignature",
          "type": "bytes"
        },
        {
          "name": "acceptorR",
          "type": "bytes32"
        },
        {
          "name": "acceptorSignature",
          "type": "bytes"
        },
        {
          "name": "initiatorR",
          "type": "bytes32"
        }
      ],
      "name": "initiatorSettle",
      "outputs": [],
      "payable": false,
      "stateMutability": "nonpayable",
      "type": "function"
    },
    {
      "constant": false,
      "inputs": [
        {
          "name": "channelIdentifier",
          "type": "bytes32"
        },
        {
          "name": "round",
          "type": "uint256"
        },
        {
          "name": "betMask",
          "type": "uint256"
        },
        {
          "name": "modulo",
          "type": "uint256"
        },
        {
          "name": "positive",
          "type": "address"
        },
        {
          "name": "negative",
          "type": "address"
        },
        {
          "name": "initiatorHashR",
          "type": "bytes32"
        },
        {
          "name": "initiatorSignature",
          "type": "bytes"
        },
        {
          "name": "acceptorR",
          "type": "bytes32"
        }
      ],
      "name": "acceptorSettle",
      "outputs": [],
      "payable": false,
      "stateMutability": "nonpayable",
      "type": "function"
    },
    {
      "constant": false,
      "inputs": [
        {
          "name": "channelIdentifier",
          "type": "bytes32"
        },
        {
          "name": "round",
          "type": "uint256"
        },
        {
          "name": "initiatorR",
          "type": "bytes32"
        }
      ],
      "name": "initiatorReveal",
      "outputs": [],
      "payable": false,
      "stateMutability": "nonpayable",
      "type": "function"
    },
    {
      "constant": true,
      "inputs": [
        {
          "name": "roundIdentifier",
          "type": "bytes32"
        }
      ],
      "name": "getResult",
      "outputs": [
        {
          "name": "",
          "type": "address"
        }
      ],
      "payable": false,
      "stateMutability": "view",
      "type": "function"
    }
  ],
  "bytecode": "0x608060405234801561001057600080fd5b506040516020806118bb8339810180604052810190808051906020019092919050505080600181905550506118718061004a6000396000f300608060405260043610610078576000357c0100000000000000000000000000000000000000000000000000000000900463ffffffff1680633e03dc9d1461007d578063863d22c7146101c2578063add4c784146101ed578063b22524c11461025e578063ee4e16921461034f578063f29ada2f14610398575b600080fd5b34801561008957600080fd5b506101c06004803603810190808035600019169060200190929190803590602001909291908035906020019092919080359060200190929190803573ffffffffffffffffffffffffffffffffffffffff169060200190929190803573ffffffffffffffffffffffffffffffffffffffff1690602001909291908035600019169060200190929190803590602001908201803590602001908080601f01602080910402602001604051908101604052809392919081815260200183838082843782019150505050505091929192908035600019169060200190929190803590602001908201803590602001908080601f0160208091040260200160405190810160405280939291908181526020018383808284378201915050505050509192919290803560001916906020019092919050505061047c565b005b3480156101ce57600080fd5b506101d76109ec565b6040518082815260200191505060405180910390f35b3480156101f957600080fd5b5061021c60048036038101908080356000191690602001909291905050506109f2565b604051808273ffffffffffffffffffffffffffffffffffffffff1673ffffffffffffffffffffffffffffffffffffffff16815260200191505060405180910390f35b34801561026a57600080fd5b5061034d6004803603810190808035600019169060200190929190803590602001909291908035906020019092919080359060200190929190803573ffffffffffffffffffffffffffffffffffffffff169060200190929190803573ffffffffffffffffffffffffffffffffffffffff1690602001909291908035600019169060200190929190803590602001908201803590602001908080601f01602080910402602001604051908101604052809392919081815260200183838082843782019150505050505091929192908035600019169060200190929190505050610b14565b005b34801561035b57600080fd5b506103966004803603810190808035600019169060200190929190803590602001909291908035600019169060200190929190505050610e7d565b005b3480156103a457600080fd5b506103c76004803603810190808035600019169060200190929190505050611360565b604051808973ffffffffffffffffffffffffffffffffffffffff1673ffffffffffffffffffffffffffffffffffffffff1681526020018873ffffffffffffffffffffffffffffffffffffffff1673ffffffffffffffffffffffffffffffffffffffff168152602001878152602001868152602001856000191660001916815260200184600019166000191681526020018360ff1660ff1681526020018281526020019850505050505050505060405180910390f35b600080600080846040516020018082600019166000191681526020019150506040516020818303038152906040526040518082805190602001908083835b6020831015156104df57805182526020820191506020810190506020830392506104ba565b6001836020036101000a038019825116818451168082178552505050505050905001915050604051809103902060001916896000191614151561058a576040517f08c379a000000000000000000000000000000000000000000000000000000000815260040180806020018281038252601c8152602001807f696e69746961746f72522073686f756c6420626520636f72726563740000000081525060200191505060405180910390fd5b61059a8f8f8f8f8f8f8f8f6113f5565b93508a73ffffffffffffffffffffffffffffffffffffffff168473ffffffffffffffffffffffffffffffffffffffff16141515610665576040517f08c379a00000000000000000000000000000000000000000000000000000000081526004018080602001828103825260278152602001807f7369676e61747572652073686f756c64206265207369676e656420627920696e81526020017f69746961746f720000000000000000000000000000000000000000000000000081525060400191505060405180910390fd5b308f8f8f8f8f8f8f8e604051602001808a73ffffffffffffffffffffffffffffffffffffffff1673ffffffffffffffffffffffffffffffffffffffff166c0100000000000000000000000002815260140189600019166000191681526020018881526020018781526020018681526020018573ffffffffffffffffffffffffffffffffffffffff1673ffffffffffffffffffffffffffffffffffffffff166c010000000000000000000000000281526014018473ffffffffffffffffffffffffffffffffffffffff1673ffffffffffffffffffffffffffffffffffffffff166c010000000000000000000000000281526014018360001916600019168152602001826000191660001916815260200199505050505050505050506040516020818303038152906040526040518082805190602001908083835b6020831015156107c3578051825260208201915060208101905060208303925061079e565b6001836020036101000a038019825116818451168082178552505050505050905001915050604051809103902092508973ffffffffffffffffffffffffffffffffffffffff16610813848861158e565b73ffffffffffffffffffffffffffffffffffffffff161415156108c4576040517f08c379a00000000000000000000000000000000000000000000000000000000081526004018080602001828103825260278152602001807f7369676e61747572652073686f756c64206265207369676e656420627920696e81526020017f69746961746f720000000000000000000000000000000000000000000000000081525060400191505060405180910390fd5b6108d28d8d878a8f8f6116a4565b91506108de8f8f6117a9565b90508160026000836000191660001916815260200190815260200160002060006101000a81548173ffffffffffffffffffffffffffffffffffffffff021916908373ffffffffffffffffffffffffffffffffffffffff1602179055508973ffffffffffffffffffffffffffffffffffffffff163373ffffffffffffffffffffffffffffffffffffffff167f512c626a39638d8845d1244c69032b4456ac2ba22c1502165be19374ee93208183856040518083600019166000191681526020018273ffffffffffffffffffffffffffffffffffffffff1673ffffffffffffffffffffffffffffffffffffffff1681526020019250505060405180910390a3505050505050505050505050505050565b60015481565b6000806000808460001916600019168152602001908152602001600020905060018160060160009054906101000a900460ff1660ff161415610ad057806007015443111515610acf576040517f08c379a00000000000000000000000000000000000000000000000000000000081526004018080602001828103825260238152602001807f72657665616c2074696d652077696e646f772073686f756c6420626520636c6f81526020017f736564000000000000000000000000000000000000000000000000000000000081525060400191505060405180910390fd5b5b60026000846000191660001916815260200190815260200160002060009054906101000a900473ffffffffffffffffffffffffffffffffffffffff16915050919050565b60008060008673ffffffffffffffffffffffffffffffffffffffff163373ffffffffffffffffffffffffffffffffffffffff16141515610bbc576040517f08c379a000000000000000000000000000000000000000000000000000000000815260040180806020018281038252601d8152602001807f74782073686f756c64206265206d616465206279206163636570746f7200000081525060200191505060405180910390fd5b610bcc8c8c8c8c8c8c8c8c6113f5565b92508773ffffffffffffffffffffffffffffffffffffffff168373ffffffffffffffffffffffffffffffffffffffff16141515610c97576040517f08c379a00000000000000000000000000000000000000000000000000000000081526004018080602001828103825260278152602001807f7369676e61747572652073686f756c64206265207369676e656420627920696e81526020017f69746961746f720000000000000000000000000000000000000000000000000081525060400191505060405180910390fd5b610ca18c8c6117a9565b915060008083600019166000191681526020019081526020016000209050898160020181905550888160030181905550878160000160006101000a81548173ffffffffffffffffffffffffffffffffffffffff021916908373ffffffffffffffffffffffffffffffffffffffff160217905550868160010160006101000a81548173ffffffffffffffffffffffffffffffffffffffff021916908373ffffffffffffffffffffffffffffffffffffffff16021790555085816004018160001916905550838160050181600019169055506001544301816007018190555060018160060160006101000a81548160ff021916908360ff1602179055508660026000846000191660001916815260200190815260200160002060006101000a81548173ffffffffffffffffffffffffffffffffffffffff021916908373ffffffffffffffffffffffffffffffffffffffff1602179055508673ffffffffffffffffffffffffffffffffffffffff168873ffffffffffffffffffffffffffffffffffffffff167f77d6c2556176bfe2b3d17a9fcb85f4ffdb2a97fa933a92a471297cec936d75098484600701546040518083600019166000191681526020018281526020019250505060405180910390a3505050505050505050505050565b6000806000610e8c86866117a9565b92506000808460001916600019168152602001908152602001600020915060018260060160009054906101000a900460ff1660ff16141515610f5c576040517f08c379a00000000000000000000000000000000000000000000000000000000081526004018080602001828103825260228152602001807f73746174652073686f756c642062652077616974696e6720666f72207265766581526020017f616c00000000000000000000000000000000000000000000000000000000000081525060400191505060405180910390fd5b816004015460001916846040516020018082600019166000191681526020019150506040516020818303038152906040526040518082805190602001908083835b602083101515610fc25780518252602082019150602081019050602083039250610f9d565b6001836020036101000a038019825116818451168082178552505050505050905001915050604051809103902060001916141515611068576040517f08c379a000000000000000000000000000000000000000000000000000000000815260040180806020018281038252601c8152602001807f696e69746961746f72522073686f756c6420626520636f72726563740000000081525060200191505060405180910390fd5b8160070154431115151561110a576040517f08c379a00000000000000000000000000000000000000000000000000000000081526004018080602001828103825260218152602001807f72657665616c2074696d652077696e646f772073686f756c64206265206f706581526020017f6e0000000000000000000000000000000000000000000000000000000000000081525060400191505060405180910390fd5b61116c826002015483600301548685600501548660000160009054906101000a900473ffffffffffffffffffffffffffffffffffffffff168760010160009054906101000a900473ffffffffffffffffffffffffffffffffffffffff166116a4565b90508060026000856000191660001916815260200190815260200160002060006101000a81548173ffffffffffffffffffffffffffffffffffffffff021916908373ffffffffffffffffffffffffffffffffffffffff1602179055506000808460001916600019168152602001908152602001600020600080820160006101000a81549073ffffffffffffffffffffffffffffffffffffffff02191690556001820160006101000a81549073ffffffffffffffffffffffffffffffffffffffff021916905560028201600090556003820160009055600482016000905560058201600090556006820160006101000a81549060ff0219169055600782016000905550508160010160009054906101000a900473ffffffffffffffffffffffffffffffffffffffff1673ffffffffffffffffffffffffffffffffffffffff168260000160009054906101000a900473ffffffffffffffffffffffffffffffffffffffff1673ffffffffffffffffffffffffffffffffffffffff167f58bd3f2c86e089a272400331a7430bfada3c33073ac9cb0bd56079aad1297cee85846040518083600019166000191681526020018273ffffffffffffffffffffffffffffffffffffffff1673ffffffffffffffffffffffffffffffffffffffff1681526020019250505060405180910390a3505050505050565b60006020528060005260406000206000915090508060000160009054906101000a900473ffffffffffffffffffffffffffffffffffffffff16908060010160009054906101000a900473ffffffffffffffffffffffffffffffffffffffff16908060020154908060030154908060040154908060050154908060060160009054906101000a900460ff16908060070154905088565b600080308a8a8a8a8a8a8a604051602001808973ffffffffffffffffffffffffffffffffffffffff1673ffffffffffffffffffffffffffffffffffffffff166c0100000000000000000000000002815260140188600019166000191681526020018781526020018681526020018581526020018473ffffffffffffffffffffffffffffffffffffffff1673ffffffffffffffffffffffffffffffffffffffff166c010000000000000000000000000281526014018373ffffffffffffffffffffffffffffffffffffffff1673ffffffffffffffffffffffffffffffffffffffff166c010000000000000000000000000281526014018260001916600019168152602001985050505050505050506040516020818303038152906040526040518082805190602001908083835b6020831015156115465780518252602082019150602081019050602083039250611521565b6001836020036101000a0380198251168184511680821785525050505050509050019150506040518091039020905061157f818461158e565b91505098975050505050505050565b600080600080604185511415156115a457600080fd5b6020850151925060408501519150606085015160001a9050601b8160ff1610156115cf57601b810190505b601b8160ff1614806115e45750601c8160ff16145b15156115ef57600080fd5b600186828585604051600081526020016040526040518085600019166000191681526020018460ff1660ff1681526020018360001916600019168152602001826000191660001916815260200194505050505060206040516020810390808403906000865af1158015611666573d6000803e3d6000fd5b50505060206040510351935060008473ffffffffffffffffffffffffffffffffffffffff161415151561169857600080fd5b83935050505092915050565b600080600086866040516020018083600019166000191681526020018260001916600019168152602001925050506040516020818303038152906040526040518082805190602001908083835b60208310151561171657805182526020820191506020810190506020830392506116f1565b6001836020036101000a0380198251168184511680821785525050505050509050019150506040518091039020915087826001900481151561175457fe5b0690506028881115156117885760008964ffffffffff168260020a1614151561177f57849250611783565b8392505b61179d565b888110156117985784925061179c565b8392505b5b50509695505050505050565b60008282604051602001808360001916600019168152602001828152602001925050506040516020818303038152906040526040518082805190602001908083835b60208310151561181057805182526020820191506020810190506020830392506117eb565b6001836020036101000a03801982511681845116808217855250505050505090500191505060405180910390209050929150505600a165627a7a72305820a5129bdb01f2bb4679b497ff98706495c383d68c857801a0937b1bcc8eae006a0029",
  "source": "pragma solidity ^0.4.24;\n\nimport \"./ECVerify.sol\";\n\ncontract Dice_SC {\n\n    /*\n     *   constant\n     */\n\n    uint256 constant MAX_MASK_MODULO = 40;\n\n    /*\n     *   state\n     */\n\n    // only paymentContract can call getRoundResult\n    //address public paymentContract;\n\n    // roundIdentifier is keccak256(channelIdentifier, round)\n    mapping (bytes32 => DiceInfo) public roundIdentifier_to_diceInfo;\n\n    struct DiceInfo {\n        address positive;\n\n        address negative;\n\n        uint256 betMask;\n\n        uint256 modulo;\n\n        bytes32 initiatorHashR;\n\n        bytes32 acceptorR;\n\n        // 0 = non-existent or settled\n        // 1 = waiting for initiator reveal \n        uint8 state; \n\n        uint256 lastRevealBlock;\n    }\n\n    uint256 public revealWindow;\n\n    mapping (bytes32 => address) roundIdentifier_to_winner;\n\n    /*\n     *   constructor\n     */\n\n    constructor(uint256 _revealWindow) public {\n        revealWindow = _revealWindow;\n    }\n\n    /*\n     *   modifiers\n     */\n\n\n    /*\n     *   public function\n     */\n\n    // function setPaymentContract (\n    //     address _paymentContract\n    // )\n    //     public\n    // {\n    //     paymentContract = _paymentContract;\n    // }\n\n    function initiatorSettle (\n        bytes32 channelIdentifier,\n        uint256 round,\n        uint256 betMask,\n        uint256 modulo,\n        address positive,\n        address negative,\n        bytes32 initiatorHashR,\n        bytes initiatorSignature,\n        bytes32 acceptorR,\n        bytes acceptorSignature,\n        bytes32 initiatorR\n    )\n        public\n    {\n        require(initiatorHashR == keccak256(abi.encodePacked(initiatorR)), \"initiatorR should be correct\");\n\n        address recoveredInitiator = recoverInitiator(\n            channelIdentifier, \n            round, \n            betMask, \n            modulo, \n            positive, \n            negative, \n            initiatorHashR, \n            initiatorSignature\n        );\n        require(recoveredInitiator == positive, \"signature should be signed by initiator\");\n\n        bytes32 acceptorMessageHash = keccak256(\n            abi.encodePacked(\n                address(this),\n                channelIdentifier,\n                round,\n                betMask,\n                modulo,\n                positive,\n                negative,\n                initiatorHashR,\n                acceptorR\n            )\n        );\n        //address recoveredAcceptor = ECVerify.ecverify(acceptorMessageHash, acceptorSignature);\n        require(ECVerify.ecverify(acceptorMessageHash, acceptorSignature) == negative, \"signature should be signed by initiator\");\n\n        address winner = settleBet (\n            betMask,\n            modulo,\n            initiatorR,\n            acceptorR,\n            positive,\n            negative\n        );\n\n        bytes32 roundIdentifier = getRoundIdentifier(\n            channelIdentifier,\n            round\n        );\n\n        roundIdentifier_to_winner[roundIdentifier] = winner;\n\n        emit InitiatorSettled(msg.sender, negative, roundIdentifier, winner);\n    }\n\n    function acceptorSettle (\n        bytes32 channelIdentifier,\n        uint256 round,\n        uint256 betMask,\n        uint256 modulo,\n        address positive,\n        address negative,\n        bytes32 initiatorHashR,\n        bytes initiatorSignature,\n        bytes32 acceptorR\n    )\n        public\n    {\n        require(msg.sender == negative, \"tx should be made by acceptor\");\n\n        address recoveredInitiator = recoverInitiator(\n            channelIdentifier, \n            round, \n            betMask, \n            modulo, \n            positive, \n            negative, \n            initiatorHashR, \n            initiatorSignature\n        );\n        require(recoveredInitiator == positive, \"signature should be signed by initiator\");\n\n        bytes32 roundIdentifier = getRoundIdentifier(\n            channelIdentifier,\n            round\n        );\n\n        DiceInfo storage diceInfo = roundIdentifier_to_diceInfo[roundIdentifier];\n        diceInfo.betMask = betMask;\n        diceInfo.modulo = modulo;\n        diceInfo.positive = positive;\n        diceInfo.negative = negative;\n        diceInfo.initiatorHashR = initiatorHashR;\n        diceInfo.acceptorR = acceptorR;\n        diceInfo.lastRevealBlock = block.number + revealWindow;\n        diceInfo.state = 1;\n\n        roundIdentifier_to_winner[roundIdentifier] = negative;\n\n        emit AcceptorSettled(positive, negative, roundIdentifier, diceInfo.lastRevealBlock);\n    }\n\n    function initiatorReveal (\n        bytes32 channelIdentifier,\n        uint256 round,\n        bytes32 initiatorR\n    )\n        public\n    {\n        bytes32 roundIdentifier = getRoundIdentifier(\n            channelIdentifier,\n            round\n        );\n\n        DiceInfo storage diceInfo = roundIdentifier_to_diceInfo[roundIdentifier];\n        require(diceInfo.state == 1, \"state should be waiting for reveal\");\n\n        require(keccak256(abi.encodePacked(initiatorR)) == diceInfo.initiatorHashR, \"initiatorR should be correct\");\n\n        require(block.number <= diceInfo.lastRevealBlock, \"reveal time window should be open\");\n\n        address winner = settleBet(\n            diceInfo.betMask,\n            diceInfo.modulo,\n            initiatorR,\n            diceInfo.acceptorR,\n            diceInfo.positive,\n            diceInfo.negative\n        );\n        roundIdentifier_to_winner[roundIdentifier] = winner;\n\n        delete roundIdentifier_to_diceInfo[roundIdentifier];\n\n        emit InitiatorRevealed(diceInfo.positive, diceInfo.negative, roundIdentifier, winner);\n    }\n\n    function getResult (\n        bytes32 roundIdentifier\n    )\n        view\n        public\n        returns (address)\n    {\n        DiceInfo storage diceInfo = roundIdentifier_to_diceInfo[roundIdentifier];\n\n        if (diceInfo.state == 1) {\n            require(block.number > diceInfo.lastRevealBlock, \"reveal time window should be closed\");\n        } \n\n        return roundIdentifier_to_winner[roundIdentifier];\n    }\n\n    /*\n     *   event\n     */\n\n    event InitiatorSettled (\n        address indexed initiator,\n        address indexed acceptor,\n        bytes32 roundIdentifier,\n        address winner\n    );\n\n    event AcceptorSettled (\n        address indexed initiator,\n        address indexed acceptor,\n        bytes32 roundIdentifier,\n        uint256 lastRevealBlock\n    );\n\n    event InitiatorRevealed (\n        address indexed initiator,\n        address indexed acceptor,\n        bytes32 roundIdentifier,\n        address winner\n    );\n\n    // event DiceResultSettled (\n    //     address indexed initiator,\n    //     address indexed acceptor,\n    //     uint256 round,\n    //     address winner\n    // );\n\n    /*\n     *   private function\n     */\n     \n    function settleBet (\n        uint256 betMask,\n        uint256 modulo,\n        bytes32 initiatorR,\n        bytes32 acceptorR,\n        address positive,\n        address negative\n    )\n        pure\n        internal\n        returns (address winner)\n    {\n        bytes32 entropy = keccak256(\n            abi.encodePacked(\n                initiatorR, \n                acceptorR\n            )\n        );\n        uint256 dice = uint256(entropy) % modulo;\n\n        if (modulo <= MAX_MASK_MODULO) {\n            if (((2 ** dice) & uint40(betMask)) != 0) {\n                winner = positive;\n            } else {\n                winner = negative;\n            }\n        } else {\n            if (dice < betMask) {\n                winner = positive;\n            } else {\n                winner = negative;\n            }\n        }\n    }\n\n    function recoverInitiator (\n        bytes32 channelIdentifier,\n        uint256 round,\n        uint256 betMask,\n        uint256 modulo,\n        address positive,\n        address negative,\n        bytes32 initiatorHashR,\n        bytes signature\n    )\n        view\n        internal\n        returns (address)\n    {\n        bytes32 initiatorMessageHash = keccak256(\n            abi.encodePacked(\n                address(this),\n                channelIdentifier,\n                round,\n                betMask,\n                modulo,\n                positive,\n                negative,\n                initiatorHashR\n            )\n        );\n\n        return ECVerify.ecverify(initiatorMessageHash, signature);\n    }\n\n    function getRoundIdentifier (\n        bytes32 channelIdentifier,\n        uint256 round\n    )\n        pure\n        internal\n        returns (bytes32)\n    {\n        return keccak256(\n            abi.encodePacked(\n                channelIdentifier,\n                round\n            )\n        );\n    }\n}",
  "sourcePath": "/Users/vincent/Develop/dice2win_blockchain_sc/contracts/Dice_SC.sol",
  "compiler": {
    "name": "solc",
    "version": "0.4.24+commit.e67f0147.Emscripten.clang"
  },
  "schemaVersion": "2.0.1",
  "updatedAt": "2018-11-09T02:36:04.807Z"
}