{
  "contractName": "Payment_ETH",
  "abi": [
    {
      "constant": true,
      "inputs": [],
      "name": "settle_window_min",
      "outputs": [
        {
          "name": "",
          "type": "uint256"
        }
      ],
      "payable": false,
      "stateMutability": "view",
      "type": "function"
    },
    {
      "constant": true,
      "inputs": [],
      "name": "channelCounter",
      "outputs": [
        {
          "name": "",
          "type": "uint256"
        }
      ],
      "payable": false,
      "stateMutability": "view",
      "type": "function"
    },
    {
      "constant": true,
      "inputs": [
        {
          "name": "",
          "type": "bytes32"
        }
      ],
      "name": "channels",
      "outputs": [
        {
          "name": "state",
          "type": "uint8"
        },
        {
          "name": "settleBlock",
          "type": "uint256"
        }
      ],
      "payable": false,
      "stateMutability": "view",
      "type": "function"
    },
    {
      "constant": true,
      "inputs": [
        {
          "name": "",
          "type": "bytes32"
        }
      ],
      "name": "participantsHash_to_channelCounter",
      "outputs": [
        {
          "name": "",
          "type": "uint256"
        }
      ],
      "payable": false,
      "stateMutability": "view",
      "type": "function"
    },
    {
      "constant": true,
      "inputs": [],
      "name": "settle_window_max",
      "outputs": [
        {
          "name": "",
          "type": "uint256"
        }
      ],
      "payable": false,
      "stateMutability": "view",
      "type": "function"
    },
    {
      "constant": true,
      "inputs": [],
      "name": "game",
      "outputs": [
        {
          "name": "",
          "type": "address"
        }
      ],
      "payable": false,
      "stateMutability": "view",
      "type": "function"
    },
    {
      "constant": true,
      "inputs": [
        {
          "name": "",
          "type": "bytes32"
        },
        {
          "name": "",
          "type": "address"
        }
      ],
      "name": "lockIdentifier_to_lockedAmount",
      "outputs": [
        {
          "name": "",
          "type": "uint256"
        }
      ],
      "payable": false,
      "stateMutability": "view",
      "type": "function"
    },
    {
      "inputs": [
        {
          "name": "_game",
          "type": "address"
        },
        {
          "name": "_settle_window_min",
          "type": "uint256"
        },
        {
          "name": "_settle_window_max",
          "type": "uint256"
        }
      ],
      "payable": false,
      "stateMutability": "nonpayable",
      "type": "constructor"
    },
    {
      "anonymous": false,
      "inputs": [
        {
          "indexed": true,
          "name": "participant1",
          "type": "address"
        },
        {
          "indexed": true,
          "name": "participant2",
          "type": "address"
        },
        {
          "indexed": false,
          "name": "channelIdentifier",
          "type": "bytes32"
        },
        {
          "indexed": false,
          "name": "settle_timeout",
          "type": "uint256"
        },
        {
          "indexed": false,
          "name": "amount",
          "type": "uint256"
        }
      ],
      "name": "ChannelOpened",
      "type": "event"
    },
    {
      "anonymous": false,
      "inputs": [
        {
          "indexed": true,
          "name": "channel_identifier",
          "type": "bytes32"
        },
        {
          "indexed": true,
          "name": "participant",
          "type": "address"
        },
        {
          "indexed": false,
          "name": "total_deposit",
          "type": "uint256"
        }
      ],
      "name": "ChannelNewDeposit",
      "type": "event"
    },
    {
      "anonymous": false,
      "inputs": [
        {
          "indexed": true,
          "name": "channelIdentifier",
          "type": "bytes32"
        },
        {
          "indexed": false,
          "name": "participant1_balance",
          "type": "uint256"
        },
        {
          "indexed": false,
          "name": "participant2_balance",
          "type": "uint256"
        }
      ],
      "name": "CooperativeSettled",
      "type": "event"
    },
    {
      "anonymous": false,
      "inputs": [
        {
          "indexed": true,
          "name": "channel_identifier",
          "type": "bytes32"
        },
        {
          "indexed": true,
          "name": "closing",
          "type": "address"
        },
        {
          "indexed": false,
          "name": "balanceHash",
          "type": "bytes32"
        }
      ],
      "name": "ChannelClosed",
      "type": "event"
    },
    {
      "anonymous": false,
      "inputs": [
        {
          "indexed": true,
          "name": "channel_identifier",
          "type": "bytes32"
        },
        {
          "indexed": true,
          "name": "nonclosing",
          "type": "address"
        },
        {
          "indexed": false,
          "name": "balanceHash",
          "type": "bytes32"
        }
      ],
      "name": "NonclosingUpdateBalanceProof",
      "type": "event"
    },
    {
      "anonymous": false,
      "inputs": [
        {
          "indexed": true,
          "name": "channelIdentifier",
          "type": "bytes32"
        },
        {
          "indexed": true,
          "name": "lockedIdentifier",
          "type": "bytes32"
        },
        {
          "indexed": false,
          "name": "participant",
          "type": "address"
        },
        {
          "indexed": false,
          "name": "transferToParticipantAmount",
          "type": "uint256"
        }
      ],
      "name": "ChannelSettled",
      "type": "event"
    },
    {
      "anonymous": false,
      "inputs": [
        {
          "indexed": true,
          "name": "channelIdentifier",
          "type": "bytes32"
        },
        {
          "indexed": true,
          "name": "beneficiary",
          "type": "address"
        },
        {
          "indexed": false,
          "name": "amount",
          "type": "uint256"
        }
      ],
      "name": "ChannelLockedSent",
      "type": "event"
    },
    {
      "anonymous": false,
      "inputs": [
        {
          "indexed": true,
          "name": "channelIdentifier",
          "type": "bytes32"
        },
        {
          "indexed": true,
          "name": "beneficiary",
          "type": "address"
        },
        {
          "indexed": false,
          "name": "amount",
          "type": "uint256"
        }
      ],
      "name": "ChannelLockedReturn",
      "type": "event"
    },
    {
      "constant": false,
      "inputs": [
        {
          "name": "participant",
          "type": "address"
        },
        {
          "name": "partner",
          "type": "address"
        },
        {
          "name": "settle_window",
          "type": "uint256"
        }
      ],
      "name": "openChannel",
      "outputs": [],
      "payable": true,
      "stateMutability": "payable",
      "type": "function"
    },
    {
      "constant": false,
      "inputs": [
        {
          "name": "participant",
          "type": "address"
        },
        {
          "name": "partner",
          "type": "address"
        }
      ],
      "name": "setTotalDeposit",
      "outputs": [],
      "payable": true,
      "stateMutability": "payable",
      "type": "function"
    },
    {
      "constant": false,
      "inputs": [
        {
          "name": "participant1_address",
          "type": "address"
        },
        {
          "name": "participant1_balance",
          "type": "uint256"
        },
        {
          "name": "participant2_address",
          "type": "address"
        },
        {
          "name": "participant2_balance",
          "type": "uint256"
        },
        {
          "name": "participant1_signature",
          "type": "bytes"
        },
        {
          "name": "participant2_signature",
          "type": "bytes"
        }
      ],
      "name": "cooperativeSettle",
      "outputs": [],
      "payable": false,
      "stateMutability": "nonpayable",
      "type": "function"
    },
    {
      "constant": false,
      "inputs": [
        {
          "name": "partner",
          "type": "address"
        },
        {
          "name": "balanceHash",
          "type": "bytes32"
        },
        {
          "name": "nonce",
          "type": "uint256"
        },
        {
          "name": "signature",
          "type": "bytes"
        }
      ],
      "name": "closeChannel",
      "outputs": [],
      "payable": false,
      "stateMutability": "nonpayable",
      "type": "function"
    },
    {
      "constant": false,
      "inputs": [
        {
          "name": "closing",
          "type": "address"
        },
        {
          "name": "balanceHash",
          "type": "bytes32"
        },
        {
          "name": "nonce",
          "type": "uint256"
        },
        {
          "name": "signature",
          "type": "bytes"
        }
      ],
      "name": "nonclosingUpdateBalanceProof",
      "outputs": [],
      "payable": false,
      "stateMutability": "nonpayable",
      "type": "function"
    },
    {
      "constant": false,
      "inputs": [
        {
          "name": "participant1",
          "type": "address"
        },
        {
          "name": "participant1_transferred_amount",
          "type": "uint256"
        },
        {
          "name": "participant1_locked_amount",
          "type": "uint256"
        },
        {
          "name": "participant1_lock_id",
          "type": "uint256"
        },
        {
          "name": "participant2",
          "type": "address"
        },
        {
          "name": "participant2_transferred_amount",
          "type": "uint256"
        },
        {
          "name": "participant2_locked_amount",
          "type": "uint256"
        },
        {
          "name": "participant2_lock_id",
          "type": "uint256"
        }
      ],
      "name": "settleChannel",
      "outputs": [],
      "payable": false,
      "stateMutability": "nonpayable",
      "type": "function"
    },
    {
      "constant": false,
      "inputs": [
        {
          "name": "participant1",
          "type": "address"
        },
        {
          "name": "participant2",
          "type": "address"
        },
        {
          "name": "lockIdentifier",
          "type": "bytes32"
        }
      ],
      "name": "unlock",
      "outputs": [],
      "payable": false,
      "stateMutability": "nonpayable",
      "type": "function"
    },
    {
      "constant": true,
      "inputs": [
        {
          "name": "participant",
          "type": "address"
        },
        {
          "name": "partner",
          "type": "address"
        }
      ],
      "name": "getChannelIdentifier",
      "outputs": [
        {
          "name": "",
          "type": "bytes32"
        }
      ],
      "payable": false,
      "stateMutability": "view",
      "type": "function"
    }
  ],
  "bytecode": "0x608060405234801561001057600080fd5b506040516060806132eb833981018060405281019080805190602001909291908051906020019092919080519060200190929190505050826000806101000a81548173ffffffffffffffffffffffffffffffffffffffff021916908373ffffffffffffffffffffffffffffffffffffffff1602179055508160058190555080600681905550505050613244806100a76000396000f3006080604052600436106100db576000357c0100000000000000000000000000000000000000000000000000000000900463ffffffff1680630a798f24146100e05780630ab943e11461014057806318444694146101df5780635a1047461461020a57806377c5f23c146102355780637a7ebd7b146102a657806384a769b2146102f85780638568536a146103995780638a6e80181461049c578063938bcd67146104e15780639e45b47814610560578063b4778bea1461058b578063c3fe3e28146105e1578063c6bf4ec514610638578063ddfb48cb1461069d575b600080fd5b61013e600480360381019080803573ffffffffffffffffffffffffffffffffffffffff169060200190929190803573ffffffffffffffffffffffffffffffffffffffff1690602001909291908035906020019092919050505061073e565b005b34801561014c57600080fd5b506101dd600480360381019080803573ffffffffffffffffffffffffffffffffffffffff169060200190929190803590602001909291908035906020019092919080359060200190929190803573ffffffffffffffffffffffffffffffffffffffff169060200190929190803590602001909291908035906020019092919080359060200190929190505050610a68565b005b3480156101eb57600080fd5b506101f4610f2c565b6040518082815260200191505060405180910390f35b34801561021657600080fd5b5061021f610f32565b6040518082815260200191505060405180910390f35b34801561024157600080fd5b506102a4600480360381019080803573ffffffffffffffffffffffffffffffffffffffff169060200190929190803573ffffffffffffffffffffffffffffffffffffffff1690602001909291908035600019169060200190929190505050610f38565b005b3480156102b257600080fd5b506102d56004803603810190808035600019169060200190929190505050611507565b604051808360ff1660ff1681526020018281526020019250505060405180910390f35b34801561030457600080fd5b50610397600480360381019080803573ffffffffffffffffffffffffffffffffffffffff169060200190929190803560001916906020019092919080359060200190929190803590602001908201803590602001908080601f0160208091040260200160405190810160405280939291908181526020018383808284378201915050505050509192919290505050611538565b005b3480156103a557600080fd5b5061049a600480360381019080803573ffffffffffffffffffffffffffffffffffffffff16906020019092919080359060200190929190803573ffffffffffffffffffffffffffffffffffffffff16906020019092919080359060200190929190803590602001908201803590602001908080601f0160208091040260200160405190810160405280939291908181526020018383808284378201915050505050509192919290803590602001908201803590602001908080601f0160208091040260200160405190810160405280939291908181526020018383808284378201915050505050509192919290505050611841565b005b3480156104a857600080fd5b506104cb6004803603810190808035600019169060200190929190505050611e3b565b6040518082815260200191505060405180910390f35b3480156104ed57600080fd5b50610542600480360381019080803573ffffffffffffffffffffffffffffffffffffffff169060200190929190803573ffffffffffffffffffffffffffffffffffffffff169060200190929190505050611e53565b60405180826000191660001916815260200191505060405180910390f35b34801561056c57600080fd5b50610575612007565b6040518082815260200191505060405180910390f35b6105df600480360381019080803573ffffffffffffffffffffffffffffffffffffffff169060200190929190803573ffffffffffffffffffffffffffffffffffffffff16906020019092919050505061200d565b005b3480156105ed57600080fd5b506105f66121a1565b604051808273ffffffffffffffffffffffffffffffffffffffff1673ffffffffffffffffffffffffffffffffffffffff16815260200191505060405180910390f35b34801561064457600080fd5b506106876004803603810190808035600019169060200190929190803573ffffffffffffffffffffffffffffffffffffffff1690602001909291905050506121c6565b6040518082815260200191505060405180910390f35b3480156106a957600080fd5b5061073c600480360381019080803573ffffffffffffffffffffffffffffffffffffffff169060200190929190803560001916906020019092919080359060200190929190803590602001908201803590602001908080601f01602080910402602001604051908101604052809392919081815260200183838082843782019150505050505091929192905050506121eb565b005b600080600083600654811115801561075857506005548110155b15156107cc576040517f08c379a00000000000000000000000000000000000000000000000000000000081526004018080602001828103825260158152602001807f696e76616c696420736574746c652077696e646f77000000000000000000000081525060200191505060405180910390fd5b6107d68787612611565b935060006002600086600019166000191681526020019081526020016000205414151561086b576040517f08c379a00000000000000000000000000000000000000000000000000000000081526004018080602001828103825260168152602001807f6368616e6e656c20616c7265616479206578697374730000000000000000000081525060200191505060405180910390fd5b6000341115156108e3576040517f08c379a00000000000000000000000000000000000000000000000000000000081526004018080602001828103825260208152602001807f73686f756c64206465706f736974207768656e206f70656e206368616e6e656c81525060200191505060405180910390fd5b600180600082825401925050819055506001546002600086600019166000191681526020019081526020016000208190555061091f8787611e53565b9250600160036000856000191660001916815260200190815260200160002060000160006101000a81548160ff021916908360ff160217905550846003600085600019166000191681526020019081526020016000206002018190555060036000846000191660001916815260200190815260200160002060010160008873ffffffffffffffffffffffffffffffffffffffff1673ffffffffffffffffffffffffffffffffffffffff16815260200190815260200160002091503482600001819055508573ffffffffffffffffffffffffffffffffffffffff168773ffffffffffffffffffffffffffffffffffffffff167ff43f324498a3f4dd1b8ffef6d6af08dc193c1707f7f669feacf8ff4e50fbdd3a858834604051808460001916600019168152602001838152602001828152602001935050505060405180910390a350505050505050565b6000806000806000610a7a8d8a611e53565b9450600360008660001916600019168152602001908152602001600020935060028460000160009054906101000a900460ff1660ff16141515610b25576040517f08c379a000000000000000000000000000000000000000000000000000000000815260040180806020018281038252601d8152602001807f6368616e6e656c2073746174652073686f6c6420626520636c6f73656400000081525060200191505060405180910390fd5b438460020154101515610ba0576040517f08c379a00000000000000000000000000000000000000000000000000000000081526004018080602001828103825260208152602001807f736574746c656d656e742077696e646f772073686f756c64206265206f76657281525060200191505060405180910390fd5b8360010160008e73ffffffffffffffffffffffffffffffffffffffff1673ffffffffffffffffffffffffffffffffffffffff16815260200190815260200160002092508360010160008a73ffffffffffffffffffffffffffffffffffffffff1673ffffffffffffffffffffffffffffffffffffffff1681526020019081526020016000209150610c32838d8d8d612940565b610c3e82898989612940565b610c4d858e8d8d8d8c8c612a9d565b90508360010160008e73ffffffffffffffffffffffffffffffffffffffff1673ffffffffffffffffffffffffffffffffffffffff1681526020019081526020016000206000808201600090556001820160006101000a81549060ff02191690556002820160009055600382016000905550508360010160008a73ffffffffffffffffffffffffffffffffffffffff1673ffffffffffffffffffffffffffffffffffffffff1681526020019081526020016000206000808201600090556001820160006101000a81549060ff0219169055600282016000905560038201600090555050600360008660001916600019168152602001908152602001600020600080820160006101000a81549060ff02191690556002820160009055505060026000610d778f8c612611565b6000191660001916815260200190815260200160002060009055610d9d838d848b612d44565b809950819d5050508c73ffffffffffffffffffffffffffffffffffffffff166108fc8d9081150290604051600060405180830381858888f19350505050158015610deb573d6000803e3d6000fd5b508873ffffffffffffffffffffffffffffffffffffffff166108fc899081150290604051600060405180830381858888f19350505050158015610e32573d6000803e3d6000fd5b50806000191685600019167f51506def4da4e4946729d5e4857c7898b5037649a12445dcca8e885afb12e4698f8f604051808373ffffffffffffffffffffffffffffffffffffffff1673ffffffffffffffffffffffffffffffffffffffff1681526020018281526020019250505060405180910390a3806000191685600019167f51506def4da4e4946729d5e4857c7898b5037649a12445dcca8e885afb12e4698b8b604051808373ffffffffffffffffffffffffffffffffffffffff1673ffffffffffffffffffffffffffffffffffffffff1681526020018281526020019250505060405180910390a350505050505050505050505050565b60055481565b60015481565b600080600060046000856000191660001916815260200190815260200160002060008773ffffffffffffffffffffffffffffffffffffffff1673ffffffffffffffffffffffffffffffffffffffff16815260200190815260200160002054925060046000856000191660001916815260200190815260200160002060008673ffffffffffffffffffffffffffffffffffffffff1673ffffffffffffffffffffffffffffffffffffffff1681526020019081526020016000205491506000809054906101000a900473ffffffffffffffffffffffffffffffffffffffff1673ffffffffffffffffffffffffffffffffffffffff1663add4c784856040518263ffffffff167c0100000000000000000000000000000000000000000000000000000000028152600401808260001916600019168152602001915050602060405180830381600087803b15801561108b57600080fd5b505af115801561109f573d6000803e3d6000fd5b505050506040513d60208110156110b557600080fd5b8101908080519060200190929190505050905060008173ffffffffffffffffffffffffffffffffffffffff16141561123457600083111561118b578573ffffffffffffffffffffffffffffffffffffffff166108fc849081150290604051600060405180830381858888f19350505050158015611136573d6000803e3d6000fd5b508573ffffffffffffffffffffffffffffffffffffffff1684600019167f06fcb8f03d7121545713132681b1bf54af1ff9fcab01f34b23a6745f5ddbbce5856040518082815260200191505060405180910390a35b600082111561122f578473ffffffffffffffffffffffffffffffffffffffff166108fc839081150290604051600060405180830381858888f193505050501580156111da573d6000803e3d6000fd5b508473ffffffffffffffffffffffffffffffffffffffff1684600019167f06fcb8f03d7121545713132681b1bf54af1ff9fcab01f34b23a6745f5ddbbce5846040518082815260200191505060405180910390a35b6114ff565b8573ffffffffffffffffffffffffffffffffffffffff168173ffffffffffffffffffffffffffffffffffffffff1614156113b557600082111561130c578573ffffffffffffffffffffffffffffffffffffffff166108fc839081150290604051600060405180830381858888f193505050501580156112b7573d6000803e3d6000fd5b508573ffffffffffffffffffffffffffffffffffffffff1684600019167f088f29dc1537a391127b5577fa9923ab8a3738bf3f4160d5c0ca098acec24a3e846040518082815260200191505060405180910390a35b60008311156113b0578573ffffffffffffffffffffffffffffffffffffffff166108fc849081150290604051600060405180830381858888f1935050505015801561135b573d6000803e3d6000fd5b508573ffffffffffffffffffffffffffffffffffffffff1684600019167f06fcb8f03d7121545713132681b1bf54af1ff9fcab01f34b23a6745f5ddbbce5856040518082815260200191505060405180910390a35b6114fe565b6000831115611459578473ffffffffffffffffffffffffffffffffffffffff166108fc849081150290604051600060405180830381858888f19350505050158015611404573d6000803e3d6000fd5b508473ffffffffffffffffffffffffffffffffffffffff1684600019167f088f29dc1537a391127b5577fa9923ab8a3738bf3f4160d5c0ca098acec24a3e856040518082815260200191505060405180910390a35b60008211156114fd578473ffffffffffffffffffffffffffffffffffffffff166108fc839081150290604051600060405180830381858888f193505050501580156114a8573d6000803e3d6000fd5b508473ffffffffffffffffffffffffffffffffffffffff1684600019167f06fcb8f03d7121545713132681b1bf54af1ff9fcab01f34b23a6745f5ddbbce5846040518082815260200191505060405180910390a35b5b5b505050505050565b60036020528060005260406000206000915090508060000160009054906101000a900460ff16908060020154905082565b6000806000803388600061154c8383611e53565b9050600160036000836000191660001916815260200190815260200160002060000160009054906101000a900460ff1660ff161415156115f4576040517f08c379a00000000000000000000000000000000000000000000000000000000081526004018080602001828103825260168152602001807f6368616e6e656c2073686f756c64206265206f70656e0000000000000000000081525060200191505060405180910390fd5b6115fe338c611e53565b965060036000886000191660001916815260200190815260200160002095508560010160008c73ffffffffffffffffffffffffffffffffffffffff1673ffffffffffffffffffffffffffffffffffffffff1681526020019081526020016000209450600089111561174c57611675878b8b8b612dcb565b93508a73ffffffffffffffffffffffffffffffffffffffff168473ffffffffffffffffffffffffffffffffffffffff16141515611740576040517f08c379a00000000000000000000000000000000000000000000000000000000081526004018080602001828103825260298152602001807f62616c616e63652070726f6f662073686f756c64206265207369676e6564206281526020017f7920706172746e6572000000000000000000000000000000000000000000000081525060400191505060405180910390fd5b61174b858b8b612eca565b5b60028660000160006101000a81548160ff021916908360ff16021790555060018660010160003373ffffffffffffffffffffffffffffffffffffffff1673ffffffffffffffffffffffffffffffffffffffff16815260200190815260200160002060010160006101000a81548160ff0219169083151502179055504386600201600082825401925050819055503373ffffffffffffffffffffffffffffffffffffffff1687600019167fc385db978aebc30a2ab47905160e860a190999aab78e9c8d040ca5911f83eede8c60405180826000191660001916815260200191505060405180910390a35050505050505050505050565b600080600080898860006118558383611e53565b9050600160036000836000191660001916815260200190815260200160002060000160009054906101000a900460ff1660ff161415156118fd576040517f08c379a00000000000000000000000000000000000000000000000000000000081526004018080602001828103825260168152602001807f6368616e6e656c2073686f756c64206265206f70656e0000000000000000000081525060200191505060405180910390fd5b6119078d8c611e53565b9650611917878e8e8e8e8e612f60565b95508c73ffffffffffffffffffffffffffffffffffffffff168673ffffffffffffffffffffffffffffffffffffffff161415156119e2576040517f08c379a000000000000000000000000000000000000000000000000000000000815260040180806020018281038252602a8152602001807f7369676e61747572652073686f756c64206265207369676e656420627920706181526020017f727469636970616e74310000000000000000000000000000000000000000000081525060400191505060405180910390fd5b6119f0878e8e8e8e8d612f60565b95508a73ffffffffffffffffffffffffffffffffffffffff168673ffffffffffffffffffffffffffffffffffffffff16141515611abb576040517f08c379a000000000000000000000000000000000000000000000000000000000815260040180806020018281038252602a8152602001807f7369676e61747572652073686f756c64206265207369676e656420627920706181526020017f727469636970616e74320000000000000000000000000000000000000000000081525060400191505060405180910390fd5b60036000886000191660001916815260200190815260200160002094508460010160008c73ffffffffffffffffffffffffffffffffffffffff1673ffffffffffffffffffffffffffffffffffffffff168152602001908152602001600020600001548560010160008f73ffffffffffffffffffffffffffffffffffffffff1673ffffffffffffffffffffffffffffffffffffffff16815260200190815260200160002060000154019350898c0184141515611c04576040517f08c379a00000000000000000000000000000000000000000000000000000000081526004018080602001828103825260388152602001807f7468652073756d206f662062616c616e6365732073686f756c6420626520657181526020017f75616c20746f2074686520746f74616c206465706f736974000000000000000081525060400191505060405180910390fd5b8460010160008e73ffffffffffffffffffffffffffffffffffffffff1673ffffffffffffffffffffffffffffffffffffffff1681526020019081526020016000206000808201600090556001820160006101000a81549060ff02191690556002820160009055600382016000905550508460010160008c73ffffffffffffffffffffffffffffffffffffffff1673ffffffffffffffffffffffffffffffffffffffff1681526020019081526020016000206000808201600090556001820160006101000a81549060ff0219169055600282016000905560038201600090555050600360008860001916600019168152602001908152602001600020600080820160006101000a81549060ff02191690556002820160009055505060026000611d2c8f8e612611565b600019166000191681526020019081526020016000206000905560008c1115611d97578c73ffffffffffffffffffffffffffffffffffffffff166108fc8d9081150290604051600060405180830381858888f19350505050158015611d95573d6000803e3d6000fd5b505b60008a1115611de8578a73ffffffffffffffffffffffffffffffffffffffff166108fc8b9081150290604051600060405180830381858888f19350505050158015611de6573d6000803e3d6000fd5b505b86600019167f4c4399a084cb97d6d0f51a5481485cccd0eb35cf21aec6cf5140408b1b3d1bd88d8c604051808381526020018281526020019250505060405180910390a250505050505050505050505050565b60026020528060005260406000206000915090505481565b6000806000808573ffffffffffffffffffffffffffffffffffffffff1614158015611e95575060008473ffffffffffffffffffffffffffffffffffffffff1614155b8015611ecd57508373ffffffffffffffffffffffffffffffffffffffff168573ffffffffffffffffffffffffffffffffffffffff1614155b1515611f41576040517f08c379a000000000000000000000000000000000000000000000000000000000815260040180806020018281038252600d8152602001807f696e76616c696420696e7075740000000000000000000000000000000000000081525060200191505060405180910390fd5b611f4b8585612611565b91506002600083600019166000191681526020019081526020016000205490508181604051602001808360001916600019168152602001828152602001925050506040516020818303038152906040526040518082805190602001908083835b602083101515611fd05780518252602082019150602081019050602083039250611fab565b6001836020036101000a03801982511681845116808217855250505050505090500191505060405180910390209250505092915050565b60065481565b6000808383600061201e8383611e53565b9050600160036000836000191660001916815260200190815260200160002060000160009054906101000a900460ff1660ff161415156120c6576040517f08c379a00000000000000000000000000000000000000000000000000000000081526004018080602001828103825260168152602001807f6368616e6e656c2073686f756c64206265206f70656e0000000000000000000081525060200191505060405180910390fd5b6120d08787611e53565b945060036000866000191660001916815260200190815260200160002060010160008873ffffffffffffffffffffffffffffffffffffffff1673ffffffffffffffffffffffffffffffffffffffff16815260200190815260200160002093503484600001600082825401925050819055508673ffffffffffffffffffffffffffffffffffffffff1685600019167f0346e981e2bfa2366dc2307a8f1fa24779830a01121b1275fe565c6b98bb4d3486600001546040518082815260200191505060405180910390a350505050505050565b6000809054906101000a900473ffffffffffffffffffffffffffffffffffffffff1681565b6004602052816000526040600020602052806000526040600020600091509150505481565b600080600080873360006121ff8383611e53565b9050600260036000836000191660001916815260200190815260200160002060000160009054906101000a900460ff1660ff161415156122a7576040517f08c379a00000000000000000000000000000000000000000000000000000000081526004018080602001828103825260188152602001807f6368616e6e656c2073686f756c6420626520636c6f736564000000000000000081525060200191505060405180910390fd5b60006001028a60001916141580156122bf5750600089115b1515612333576040517f08c379a00000000000000000000000000000000000000000000000000000000081526004018080602001828103825260158152602001807f696e76616c69642062616c616e63652070726f6f66000000000000000000000081525060200191505060405180910390fd5b61233d338c611e53565b965060036000886000191660001916815260200190815260200160002095508560010160008c73ffffffffffffffffffffffffffffffffffffffff1673ffffffffffffffffffffffffffffffffffffffff16815260200190815260200160002094508460010160009054906101000a900460ff161515612425576040517f08c379a00000000000000000000000000000000000000000000000000000000081526004018080602001828103825260188152602001807f706172746e65722073686f756c6420626520636c6f736572000000000000000081525060200191505060405180910390fd5b856002015443111515156124c7576040517f08c379a00000000000000000000000000000000000000000000000000000000081526004018080602001828103825260268152602001807f6368616e6e656c2073686f756c6420626520696e20736574746c656d656e742081526020017f77696e646f77000000000000000000000000000000000000000000000000000081525060400191505060405180910390fd5b6124d3878b8b8b612dcb565b93508a73ffffffffffffffffffffffffffffffffffffffff168473ffffffffffffffffffffffffffffffffffffffff1614151561259e576040517f08c379a00000000000000000000000000000000000000000000000000000000081526004018080602001828103825260258152602001807f7369676e61747572652073686f756c64206265207369676e656420627920636c81526020017f6f73696e6700000000000000000000000000000000000000000000000000000081525060400191505060405180910390fd5b6125a9858b8b612eca565b3373ffffffffffffffffffffffffffffffffffffffff1687600019167f9402d324e62839355b4df4992553dcdef3d9451e87e9591f51a776388c04e4ca8c60405180826000191660001916815260200191505060405180910390a35050505050505050505050565b6000808373ffffffffffffffffffffffffffffffffffffffff1614158015612650575060008273ffffffffffffffffffffffffffffffffffffffff1614155b801561268857508173ffffffffffffffffffffffffffffffffffffffff168373ffffffffffffffffffffffffffffffffffffffff1614155b15156126fc576040517f08c379a000000000000000000000000000000000000000000000000000000000815260040180806020018281038252600d8152602001807f696e76616c696420696e7075740000000000000000000000000000000000000081525060200191505060405180910390fd5b8173ffffffffffffffffffffffffffffffffffffffff168373ffffffffffffffffffffffffffffffffffffffff161015612837578282604051602001808373ffffffffffffffffffffffffffffffffffffffff1673ffffffffffffffffffffffffffffffffffffffff166c010000000000000000000000000281526014018273ffffffffffffffffffffffffffffffffffffffff1673ffffffffffffffffffffffffffffffffffffffff166c01000000000000000000000000028152601401925050506040516020818303038152906040526040518082805190602001908083835b60208310151561280357805182526020820191506020810190506020830392506127de565b6001836020036101000a0380198251168184511680821785525050505050509050019150506040518091039020905061293a565b8183604051602001808373ffffffffffffffffffffffffffffffffffffffff1673ffffffffffffffffffffffffffffffffffffffff166c010000000000000000000000000281526014018273ffffffffffffffffffffffffffffffffffffffff1673ffffffffffffffffffffffffffffffffffffffff166c01000000000000000000000000028152601401925050506040516020818303038152906040526040518082805190602001908083835b60208310151561290a57805182526020820191506020810190506020830392506128e5565b6001836020036101000a038019825116818451168082178552505050505050905001915050604051809103902090505b92915050565b60008060010285600201546000191614801561295c5750600084145b80156129685750600083145b80156129745750600082145b1561297e57612a96565b8383836040516020018084815260200183815260200182815260200193505050506040516020818303038152906040526040518082805190602001908083835b6020831015156129e357805182526020820191506020810190506020830392506129be565b6001836020036101000a038019825116818451168082178552505050505050905001915050604051809103902090508460020154600019168160001916141515612a95576040517f08c379a000000000000000000000000000000000000000000000000000000000815260040180806020018281038252601e8152602001807f62616c616e636520686173682073686f756c6420626520636f7272656374000081525060200191505060405180910390fd5b5b5050505050565b600081851415612b40578785604051602001808360001916600019168152602001828152602001925050506040516020818303038152906040526040518082805190602001908083835b602083101515612b0c5780518252602082019150602081019050602083039250612ae7565b6001836020036101000a03801982511681845116808217855250505050505090500191505060405180910390209050612c7f565b81851015612be5578782604051602001808360001916600019168152602001828152602001925050506040516020818303038152906040526040518082805190602001908083835b602083101515612bad5780518252602082019150602081019050602083039250612b88565b6001836020036101000a0380198251168184511680821785525050505050509050019150506040518091039020905060009550612c7e565b8785604051602001808360001916600019168152602001828152602001925050506040516020818303038152906040526040518082805190602001908083835b602083101515612c4a5780518252602082019150602081019050602083039250612c25565b6001836020036101000a03801982511681845116808217855250505050505090500191505060405180910390209050600092505b5b8560046000836000191660001916815260200190815260200160002060008973ffffffffffffffffffffffffffffffffffffffff1673ffffffffffffffffffffffffffffffffffffffff168152602001908152602001600020819055508260046000836000191660001916815260200190815260200160002060008673ffffffffffffffffffffffffffffffffffffffff1673ffffffffffffffffffffffffffffffffffffffff16815260200190815260200160002081905550979650505050505050565b600080600080612d5487866130df565b809250819350505086811415612d945781866000015411612d79578560000154612d7b565b815b9150818860000154019350818660000154039250612dc0565b81886000015411612da9578760000154612dab565b815b91508188600001540393508186600001540192505b505094509492505050565b60008030868686604051602001808573ffffffffffffffffffffffffffffffffffffffff1673ffffffffffffffffffffffffffffffffffffffff166c01000000000000000000000000028152601401846000191660001916815260200183600019166000191681526020018281526020019450505050506040516020818303038152906040526040518082805190602001908083835b602083101515612e865780518252602082019150602081019050602083039250612e61565b6001836020036101000a03801982511681845116808217855250505050505090500191505060405180910390209050612ebf8184613102565b915050949350505050565b826003015481111515612f45576040517f08c379a00000000000000000000000000000000000000000000000000000000081526004018080602001828103825260198152602001807f6e6f6e63652073686f756c64206265206d6f6e6f746f6e69630000000000000081525060200191505060405180910390fd5b81836002018160001916905550808360030181905550505050565b600080308888888888604051602001808773ffffffffffffffffffffffffffffffffffffffff1673ffffffffffffffffffffffffffffffffffffffff166c0100000000000000000000000002815260140186600019166000191681526020018573ffffffffffffffffffffffffffffffffffffffff1673ffffffffffffffffffffffffffffffffffffffff166c010000000000000000000000000281526014018481526020018373ffffffffffffffffffffffffffffffffffffffff1673ffffffffffffffffffffffffffffffffffffffff166c0100000000000000000000000002815260140182815260200196505050505050506040516020818303038152906040526040518082805190602001908083835b6020831015156130995780518252602082019150602081019050602083039250613074565b6001836020036101000a038019825116818451168082178552505050505050905001915050604051809103902090506130d28184613102565b9150509695505050505050565b6000808284116130f257838303846130f7565b828403835b915091509250929050565b6000806000806041855114151561311857600080fd5b6020850151925060408501519150606085015160001a9050601b8160ff16101561314357601b810190505b601b8160ff1614806131585750601c8160ff16145b151561316357600080fd5b600186828585604051600081526020016040526040518085600019166000191681526020018460ff1660ff1681526020018360001916600019168152602001826000191660001916815260200194505050505060206040516020810390808403906000865af11580156131da573d6000803e3d6000fd5b50505060206040510351935060008473ffffffffffffffffffffffffffffffffffffffff161415151561320c57600080fd5b839350505050929150505600a165627a7a723058202af8248e794f53692fdf764ca2f59b248b1d183d950218f2236b40c18324073f0029",
  "source": "pragma solidity ^0.4.24;\n\n//import \"./Dice_SC.sol\" as Game;\nimport \"./Dice_SC.sol\";\nimport \"./ECVerify.sol\"; \n\ncontract Payment_ETH {\n\n    /* \n     *   constant\n     */\n\n    //address constant DUMMY_ADDRESS = 0xEeeeeEeeeEeEeeEeEeEeeEEEeeeeEeeeeeeeEEeE;\n\n    /*\n     *   state\n     */\n\n    Dice_SC public game;\n\n    struct Participant {\n        uint256 deposit;\n        bool isCloser;\n        bytes32 balanceHash;\n        uint256 nonce;\n    }\n\n    struct Channel {\n        // 1 = open, 2 = closed\n        // 0 = non-existent or settled\n        uint8 state;\n\n        mapping(address => Participant) participants;\n\n        // After opening the channel this value represents the settlement window. This is the number of blocks that need to be mined between closing the channel uncooperatively and settling the channel.\n        // After the channel has been uncooperatively closed, this value represents the block number after which settleChannel can be called.\n        uint256 settleBlock;\n    }\n\n    uint256 public channelCounter;\n\n    // The key is keccak256(lexicographic order of participant addresses)\n    mapping (bytes32 => uint256) public participantsHash_to_channelCounter;\n\n    // channel_identifier => channel. channel identifier is the keccak256(lexicographic order of participant addresses, channelCounter)\n    mapping (bytes32 => Channel) public channels;\n\n    //lockIdentifier is keccak256(channelIdentifier, lockID)\n    mapping(bytes32 => mapping (address => uint256)) public lockIdentifier_to_lockedAmount;\n\n    uint256 public settle_window_min;\n    uint256 public settle_window_max;\n\n\n    /*\n     *   constructor\n     */\n\n    constructor(\n        address _game,\n        uint256 _settle_window_min,\n        uint256 _settle_window_max \n    ) \n        public \n    {\n        game = Dice_SC(_game);\n        settle_window_min = _settle_window_min;\n        settle_window_max = _settle_window_max;\n    }\n\n    /*\n     *   modifiers\n     */\n\n    modifier isOpen (address participant, address partner) {\n        bytes32 channelIdentifier = getChannelIdentifier(participant, partner);\n        require(channels[channelIdentifier].state == 1, \"channel should be open\");\n        _;\n    }\n\n    modifier isClosed (address participant, address partner) {\n        bytes32 channelIdentifier = getChannelIdentifier(participant, partner);\n        require(channels[channelIdentifier].state == 2, \"channel should be closed\");\n        _;\n    }\n\n    modifier settleWindowValid (uint256 settleWindow) {\n        require(settleWindow <= settle_window_max && settleWindow >= settle_window_min, \"invalid settle window\");\n        _;\n    }\n\n    /*\n     *   public function\n     */\n\n    function openChannel(\n        address participant, \n        address partner, \n        uint256 settle_window\n    )\n        settleWindowValid(settle_window)\n        public\n        payable\n    {\n        bytes32 participantsHash = getParticipantsHash(participant, partner);\n        require(participantsHash_to_channelCounter[participantsHash] == 0, \"channel already exists\");\n\n        require(msg.value > 0, \"should deposit when open channel\");\n\n        channelCounter += 1;\n        participantsHash_to_channelCounter[participantsHash] = channelCounter;\n\n        bytes32 channelIdentifier = getChannelIdentifier(participant, partner);\n        channels[channelIdentifier].state = 1;\n        channels[channelIdentifier].settleBlock = settle_window;\n\n        Participant storage participantStruct = channels[channelIdentifier].participants[participant];\n        participantStruct.deposit = msg.value;\n\n        emit ChannelOpened(participant, partner, channelIdentifier, settle_window, msg.value);\n    }\n\n    function setTotalDeposit(\n        address participant, \n        address partner\n    )\n        isOpen(participant, partner)\n        public\n        payable\n    {\n        bytes32 channelIdentifier = getChannelIdentifier(participant, partner);\n        Participant storage participant_struct = channels[channelIdentifier].participants[participant];\n        participant_struct.deposit += msg.value;\n\n        emit ChannelNewDeposit(channelIdentifier, participant, participant_struct.deposit);\n    }\n\n    function cooperativeSettle (\n        address participant1_address,\n        uint256 participant1_balance,\n        address participant2_address,\n        uint256 participant2_balance,\n        bytes participant1_signature,\n        bytes participant2_signature\n    )\n        isOpen (participant1_address, participant2_address)\n        public\n    {\n        bytes32 channelIdentifier = getChannelIdentifier(participant1_address, participant2_address);\n\n        address recoveredParticipant1 = recoverAddressFromCooperativeSettleSignature(\n            channelIdentifier, \n            participant1_address, \n            participant1_balance, \n            participant2_address, \n            participant2_balance, \n            participant1_signature\n        );\n        require(recoveredParticipant1 == participant1_address, \"signature should be signed by participant1\");\n\n        recoveredParticipant1 = recoverAddressFromCooperativeSettleSignature(\n            channelIdentifier, \n            participant1_address, \n            participant1_balance, \n            participant2_address, \n            participant2_balance, \n            participant2_signature\n        );\n        require(recoveredParticipant1 == participant2_address, \"signature should be signed by participant2\");\n\n        // address recoveredParticipant2 = recoverAddressFromCooperativeSettleSignature(\n        //     channelIdentifier, \n        //     participant1_address, \n        //     participant1_balance, \n        //     participant2_address, \n        //     participant2_balance, \n        //     participant2_signature\n        // );\n        // require(recoveredParticipant2 == participant2_address, \"signature should be signed by participant2\");\n\n        Channel storage channel = channels[channelIdentifier];\n\n        uint256 totalDeposit = channel.participants[participant1_address].deposit + channel.participants[participant2_address].deposit;\n        require(totalDeposit == participant1_balance + participant2_balance, \"the sum of balances should be equal to the total deposit\");\n\n        delete channel.participants[participant1_address];\n        delete channel.participants[participant2_address];\n        delete channels[channelIdentifier];\n        delete participantsHash_to_channelCounter[getParticipantsHash(participant1_address, participant2_address)];\n\n        if (participant1_balance > 0) {\n            participant1_address.transfer(participant1_balance);\n        }\n\n        if (participant2_balance > 0) {\n            participant2_address.transfer(participant2_balance);\n        }\n        \n        emit CooperativeSettled(channelIdentifier, participant1_balance, participant2_balance);\n    }\n\n    //balanceHash is keccak256(transferredAmount, lockedAmount, lockID)\n    function closeChannel (\n        address partner, \n        bytes32 balanceHash, \n        uint256 nonce, \n        bytes signature\n    )\n        isOpen (msg.sender, partner)\n        public\n    {\n        bytes32 channelIdentifier = getChannelIdentifier(msg.sender, partner);\n        Channel storage channel = channels[channelIdentifier];\n        Participant storage partnerStruct = channel.participants[partner];\n\n        if (nonce > 0) {\n            address recoveredPartner = recoverAddressFromBalanceProof(channelIdentifier, balanceHash, nonce, signature);\n            require(recoveredPartner == partner, \"balance proof should be signed by partner\");\n\n            updateParticipantBalanceProof(partnerStruct, balanceHash, nonce);\n        }\n        \n        channel.state = 2;\n        channel.participants[msg.sender].isCloser = true;\n        channel.settleBlock += uint256(block.number);\n\n        emit ChannelClosed(channelIdentifier, msg.sender, balanceHash);\n    }\n\n    //balanceHash is keccak256(transferredAmount, lockedAmount, lockID)\n    function nonclosingUpdateBalanceProof(\n        address closing, \n        bytes32 balanceHash, \n        uint256 nonce, \n        bytes signature\n    )\n        isClosed(closing, msg.sender)\n        public\n    {\n        require(balanceHash != 0x0 && nonce > 0, \"invalid balance proof\");\n\n        bytes32 channelIdentifier = getChannelIdentifier(msg.sender, closing);\n        Channel storage channel = channels[channelIdentifier];\n        Participant storage closingStruct = channel.participants[closing];\n        //require(channel.state == 2, \"channel should be closed\");\n        require(closingStruct.isCloser, \"partner should be closer\");\n        require(block.number <= channel.settleBlock, \"channel should be in settlement window\");\n\n        address recoveredClosing = recoverAddressFromBalanceProof(\n            channelIdentifier,\n            balanceHash,\n            nonce,\n            signature\n        );\n        require(recoveredClosing == closing, \"signature should be signed by closing\");\n\n        updateParticipantBalanceProof(closingStruct, balanceHash, nonce);\n\n        emit NonclosingUpdateBalanceProof(channelIdentifier, msg.sender, balanceHash);\n    }\n\n    function settleChannel(\n        address participant1, \n        uint256 participant1_transferred_amount,\n        uint256 participant1_locked_amount,\n        uint256 participant1_lock_id,\n        address participant2,\n        uint256 participant2_transferred_amount,\n        uint256 participant2_locked_amount,\n        uint256 participant2_lock_id\n    )\n        //isClosed(participant1, participant2)\n        public\n    {\n        bytes32 channelIdentifier = getChannelIdentifier(participant1, participant2);\n        Channel storage channel = channels[channelIdentifier];\n        \n        require(channel.state == 2, \"channel state shold be closed\");\n        require(channel.settleBlock < block.number, \"settlement window should be over\");\n\n        Participant storage participant1Struct = channel.participants[participant1];\n        Participant storage participant2Struct = channel.participants[participant2];\n\n        verifyBalanceHashData(\n            participant1Struct,\n            participant1_transferred_amount,\n            participant1_locked_amount,\n            participant1_lock_id\n        );\n\n        verifyBalanceHashData(\n            participant2Struct,\n            participant2_transferred_amount,\n            participant2_locked_amount,\n            participant2_lock_id\n        );\n\n        bytes32 lockIdentifier = updateLockData(\n            channelIdentifier,\n            participant1,\n            participant1_locked_amount,\n            participant1_lock_id,\n            participant2,\n            participant2_locked_amount,\n            participant2_lock_id\n        );\n\n        delete channel.participants[participant1];\n        delete channel.participants[participant2];\n        delete channels[channelIdentifier];\n        delete participantsHash_to_channelCounter[getParticipantsHash(participant1, participant2)];\n\n        // uint256 transferToParticipant1Amount;\n        // uint256 transferToParticipant2Amount;\n        (\n            participant1_transferred_amount, \n            participant2_transferred_amount\n        ) = getSettleTransferAmounts (\n            participant1Struct,\n            participant1_transferred_amount,\n            participant2Struct,\n            participant2_transferred_amount\n        );  \n        participant1.transfer(participant1_transferred_amount);\n        participant2.transfer(participant2_transferred_amount);\n\n        emit ChannelSettled(channelIdentifier, lockIdentifier, participant1, participant1_transferred_amount);\n        emit ChannelSettled(channelIdentifier, lockIdentifier, participant2, participant2_transferred_amount);\n\n        // uint256 transferToParticipant1Amount;\n        // uint256 transferToParticipant2Amount;\n        // (\n        //     transferToParticipant1Amount, \n        //     transferToParticipant2Amount\n        // ) = getSettleTransferAmounts (\n        //     participant1Struct,\n        //     participant1_transferred_amount,\n        //     participant2Struct,\n        //     participant2_transferred_amount\n        // );  \n        // participant1.transfer(transferToParticipant1Amount);\n        // participant2.transfer(transferToParticipant2Amount);\n\n        // emit ChannelSettled(channelIdentifier, lockIdentifier, participant1, transferToParticipant1Amount);\n        // emit ChannelSettled(channelIdentifier, lockIdentifier, participant2, transferToParticipant2Amount);\n    }\n\n    function unlock(\n        address participant1,\n        address participant2,\n        bytes32 lockIdentifier\n    )\n        public\n    {\n        uint256 participant1LockedAmount = lockIdentifier_to_lockedAmount[lockIdentifier][participant1];\n        uint256 participant2LockedAmount = lockIdentifier_to_lockedAmount[lockIdentifier][participant2];\n\n        address winner = game.getResult(lockIdentifier);\n\n        if (winner == 0x0) {\n            if (participant1LockedAmount > 0) {\n                participant1.transfer(participant1LockedAmount);\n                emit ChannelLockedReturn(lockIdentifier, participant1, participant1LockedAmount);\n            }\n            if (participant2LockedAmount > 0) {\n                participant2.transfer(participant2LockedAmount);\n                emit ChannelLockedReturn(lockIdentifier, participant2, participant2LockedAmount);\n            }\n        } else {\n            if (winner == participant1) {\n                if (participant2LockedAmount > 0) {\n                    participant1.transfer(participant2LockedAmount);\n                    emit ChannelLockedSent(lockIdentifier, participant1, participant2LockedAmount);\n                }\n                if (participant1LockedAmount > 0) {\n                    participant1.transfer(participant1LockedAmount);\n                    emit ChannelLockedReturn(lockIdentifier, participant1, participant1LockedAmount);\n                }\n            } else {\n                if (participant1LockedAmount > 0) {\n                    participant2.transfer(participant1LockedAmount);\n                    emit ChannelLockedSent(lockIdentifier, participant2, participant1LockedAmount);\n                }\n                if (participant2LockedAmount > 0) {\n                    participant2.transfer(participant2LockedAmount);\n                    emit ChannelLockedReturn(lockIdentifier, participant2, participant2LockedAmount);\n                }\n            }       \n        } \n    }\n\n    function getChannelIdentifier (\n        address participant, \n        address partner\n    ) \n        view\n        public\n        returns (bytes32)\n    {\n        require(participant != 0x0 && partner != 0x0 && participant != partner, \"invalid input\");\n\n        bytes32 participantsHash = getParticipantsHash(participant, partner);\n        uint256 counter = participantsHash_to_channelCounter[participantsHash];\n        return keccak256((abi.encodePacked(participantsHash, counter)));\n    }    \n\n    /*\n     *   event\n     */\n\n    event ChannelOpened(\n        address indexed participant1,\n        address indexed participant2,\n        bytes32 channelIdentifier,\n        uint256 settle_timeout,\n        uint256 amount\n    );\n\n    event ChannelNewDeposit(\n        bytes32 indexed channel_identifier,\n        address indexed participant,\n        uint256 total_deposit\n    );\n\n    event CooperativeSettled (\n        bytes32 indexed channelIdentifier,\n        uint256 participant1_balance,\n        uint256 participant2_balance\n    );\n\n    event ChannelClosed(\n        bytes32 indexed channel_identifier,\n        address indexed closing,\n        bytes32 balanceHash\n    );\n\n    event NonclosingUpdateBalanceProof(\n        bytes32 indexed channel_identifier,\n        address indexed nonclosing,\n        bytes32 balanceHash\n    );\n\n    event ChannelSettled(\n        bytes32 indexed channelIdentifier, \n        bytes32 indexed lockedIdentifier,\n        address participant, \n        uint256 transferToParticipantAmount\n    );\n\n    event ChannelLockedSent(\n        bytes32 indexed channelIdentifier, \n        address indexed beneficiary, \n        uint256 amount\n    );\n\n    event ChannelLockedReturn(\n        bytes32 indexed channelIdentifier, \n        address indexed beneficiary, \n        uint256 amount\n    );\n\n    /*\n     *   private function\n     */\n\n    function getParticipantsHash(\n        address participant,\n        address partner\n    )\n        pure\n        internal\n        returns (bytes32)\n    {\n        require(participant != 0x0 && partner != 0x0 && participant != partner, \"invalid input\");\n\n        if (participant < partner) {\n            return keccak256(abi.encodePacked(participant, partner));\n        } else {\n            return keccak256(abi.encodePacked(partner, participant));\n        }\n    }\n\n    function recoverAddressFromCooperativeSettleSignature (\n        bytes32 channelIdentifier,\n        address participant1,\n        uint256 participant1_balance,\n        address participant2,\n        uint256 participant2_balance,\n        bytes signature\n    )\n        view\n        internal\n        returns (address signatureAddress)\n    {\n        bytes32 messageHash = keccak256(\n            abi.encodePacked(\n                address(this), \n                channelIdentifier, \n                participant1, \n                participant1_balance, \n                participant2, \n                participant2_balance\n            )\n        );\n        signatureAddress = ECVerify.ecverify(messageHash, signature);\n    }\n\n    function recoverAddressFromBalanceProof (\n        bytes32 channelIdentifier,\n        bytes32 balanceHash,\n        uint256 nonce,\n        bytes signature\n    )\n        view\n        internal\n        returns (address signatureAddress)\n    {\n        bytes32 messageHash = keccak256(\n            abi.encodePacked(\n                address(this),\n                channelIdentifier,\n                balanceHash,\n                nonce\n            )\n        );\n        signatureAddress = ECVerify.ecverify(messageHash, signature);\n    }\n\n    function updateParticipantBalanceProof (\n        Participant storage participant,\n        bytes32 balanceHash,\n        uint256 nonce\n    )\n        internal\n    {\n        require(nonce > participant.nonce, \"nonce should be monotonic\");\n\n        participant.balanceHash = balanceHash;\n        participant.nonce = nonce;\n    }\n\n    function verifyBalanceHashData (\n        Participant storage participant,\n        uint256 transferredAmount,\n        uint256 lockedAmount,\n        uint256 lockID\n    )\n        view\n        internal\n    {\n        if (participant.balanceHash == 0x0 && transferredAmount == 0 && lockedAmount == 0 && lockID == 0) {\n            return;\n        }\n\n        bytes32 balanceHash = keccak256(abi.encodePacked(transferredAmount, lockedAmount, lockID));\n        require(balanceHash == participant.balanceHash, \"balance hash should be correct\");\n    }\n\n    function getSettleTransferAmounts (\n        Participant storage participant1,\n        uint256 participant1_transferred_amount,\n        Participant storage participant2,\n        uint256 participant2_transferred_amount\n    )\n        view\n        internal\n        returns (uint256 transferToParticipant1Amount, uint256 transferToParticipant2Amount)\n    {\n        uint256 margin;\n        uint256 min;\n        (margin, min) = magicSubtract(participant1_transferred_amount, participant2_transferred_amount);\n        if (min == participant1_transferred_amount) {\n            margin = participant2.deposit > margin ? margin : participant2.deposit;\n            transferToParticipant1Amount = participant1.deposit + margin;\n            transferToParticipant2Amount = participant2.deposit - margin;\n        } else {\n            margin = participant1.deposit > margin ? margin : participant1.deposit;\n            transferToParticipant1Amount = participant1.deposit - margin;\n            transferToParticipant2Amount = participant2.deposit + margin;\n        }\n    }\n\n    function updateLockData(\n        bytes32 channelIdentifier,\n        address participant1,\n        uint256 participant1_locked_amount,\n        uint256 participant1_lock_id,\n        address participant2,\n        uint256 participant2_locked_amount,\n        uint256 participant2_lock_id\n    )\n        internal\n        returns (bytes32 lockIdentifier)\n    {\n        if (participant1_lock_id == participant2_lock_id) {\n            lockIdentifier = keccak256(abi.encodePacked(channelIdentifier, participant1_lock_id));\n        } else if (participant1_lock_id < participant2_lock_id) {\n            lockIdentifier = keccak256(abi.encodePacked(channelIdentifier, participant2_lock_id));\n            participant1_locked_amount = 0;\n        } else {\n            lockIdentifier = keccak256(abi.encodePacked(channelIdentifier, participant1_lock_id));\n            participant2_locked_amount = 0;\n        }\n\n        lockIdentifier_to_lockedAmount[lockIdentifier][participant1] = participant1_locked_amount;\n        lockIdentifier_to_lockedAmount[lockIdentifier][participant2] = participant2_locked_amount;\n    }\n\n    function magicSubtract(\n        uint256 a,\n        uint256 b\n    )\n        pure\n        internal\n        returns (uint256, uint256)\n    {\n        return a > b ? (a - b, b) : (b - a, a);\n    }\n}",
  "sourcePath": "/Users/vincent/Develop/dice2win_blockchain_sc/contracts/Payment_ETH.sol",
  "compiler": {
    "name": "solc",
    "version": "0.4.24+commit.e67f0147.Emscripten.clang"
  },
  "schemaVersion": "2.0.1",
  "updatedAt": "2018-11-09T11:09:38.140Z"
}