{
  "contractName": "Payment_ETH",
  "abi": [
    {
      "constant": true,
      "inputs": [],
      "name": "settle_window_min",
      "outputs": [
        {
          "name": "",
          "type": "uint256"
        }
      ],
      "payable": false,
      "stateMutability": "view",
      "type": "function"
    },
    {
      "constant": true,
      "inputs": [],
      "name": "channelCounter",
      "outputs": [
        {
          "name": "",
          "type": "uint256"
        }
      ],
      "payable": false,
      "stateMutability": "view",
      "type": "function"
    },
    {
      "constant": true,
      "inputs": [
        {
          "name": "",
          "type": "bytes32"
        }
      ],
      "name": "channels",
      "outputs": [
        {
          "name": "state",
          "type": "uint8"
        },
        {
          "name": "settleBlock",
          "type": "uint256"
        }
      ],
      "payable": false,
      "stateMutability": "view",
      "type": "function"
    },
    {
      "constant": true,
      "inputs": [
        {
          "name": "",
          "type": "bytes32"
        }
      ],
      "name": "participantsHash_to_channelCounter",
      "outputs": [
        {
          "name": "",
          "type": "uint256"
        }
      ],
      "payable": false,
      "stateMutability": "view",
      "type": "function"
    },
    {
      "constant": true,
      "inputs": [],
      "name": "settle_window_max",
      "outputs": [
        {
          "name": "",
          "type": "uint256"
        }
      ],
      "payable": false,
      "stateMutability": "view",
      "type": "function"
    },
    {
      "constant": true,
      "inputs": [],
      "name": "game",
      "outputs": [
        {
          "name": "",
          "type": "address"
        }
      ],
      "payable": false,
      "stateMutability": "view",
      "type": "function"
    },
    {
      "constant": true,
      "inputs": [
        {
          "name": "",
          "type": "bytes32"
        },
        {
          "name": "",
          "type": "address"
        }
      ],
      "name": "lockIdentifier_to_lockedAmount",
      "outputs": [
        {
          "name": "",
          "type": "uint256"
        }
      ],
      "payable": false,
      "stateMutability": "view",
      "type": "function"
    },
    {
      "inputs": [
        {
          "name": "_game",
          "type": "address"
        },
        {
          "name": "_settle_window_min",
          "type": "uint256"
        },
        {
          "name": "_settle_window_max",
          "type": "uint256"
        }
      ],
      "payable": false,
      "stateMutability": "nonpayable",
      "type": "constructor"
    },
    {
      "anonymous": false,
      "inputs": [
        {
          "indexed": true,
          "name": "participant1",
          "type": "address"
        },
        {
          "indexed": true,
          "name": "participant2",
          "type": "address"
        },
        {
          "indexed": true,
          "name": "channelIdentifier",
          "type": "bytes32"
        },
        {
          "indexed": false,
          "name": "settle_timeout",
          "type": "uint256"
        }
      ],
      "name": "ChannelOpened",
      "type": "event"
    },
    {
      "anonymous": false,
      "inputs": [
        {
          "indexed": true,
          "name": "channel_identifier",
          "type": "bytes32"
        },
        {
          "indexed": true,
          "name": "participant",
          "type": "address"
        },
        {
          "indexed": false,
          "name": "total_deposit",
          "type": "uint256"
        }
      ],
      "name": "ChannelNewDeposit",
      "type": "event"
    },
    {
      "anonymous": false,
      "inputs": [
        {
          "indexed": true,
          "name": "channelIdentifier",
          "type": "bytes32"
        },
        {
          "indexed": false,
          "name": "participant1_balance",
          "type": "uint256"
        },
        {
          "indexed": false,
          "name": "participant2_balance",
          "type": "uint256"
        }
      ],
      "name": "CooperativeSettled",
      "type": "event"
    },
    {
      "anonymous": false,
      "inputs": [
        {
          "indexed": true,
          "name": "channel_identifier",
          "type": "bytes32"
        },
        {
          "indexed": true,
          "name": "closing",
          "type": "address"
        },
        {
          "indexed": false,
          "name": "balanceHash",
          "type": "bytes32"
        }
      ],
      "name": "ChannelClosed",
      "type": "event"
    },
    {
      "anonymous": false,
      "inputs": [
        {
          "indexed": true,
          "name": "channel_identifier",
          "type": "bytes32"
        },
        {
          "indexed": true,
          "name": "nonclosing",
          "type": "address"
        },
        {
          "indexed": false,
          "name": "balanceHash",
          "type": "bytes32"
        }
      ],
      "name": "NonclosingUpdateBalanceProof",
      "type": "event"
    },
    {
      "anonymous": false,
      "inputs": [
        {
          "indexed": true,
          "name": "channelIdentifier",
          "type": "bytes32"
        },
        {
          "indexed": true,
          "name": "lockedIdentifier",
          "type": "bytes32"
        },
        {
          "indexed": false,
          "name": "participant",
          "type": "address"
        },
        {
          "indexed": false,
          "name": "transferToParticipantAmount",
          "type": "uint256"
        }
      ],
      "name": "ChannelSettled",
      "type": "event"
    },
    {
      "anonymous": false,
      "inputs": [
        {
          "indexed": true,
          "name": "channelIdentifier",
          "type": "bytes32"
        },
        {
          "indexed": true,
          "name": "beneficiary",
          "type": "address"
        },
        {
          "indexed": false,
          "name": "amount",
          "type": "uint256"
        }
      ],
      "name": "ChannelLockedSent",
      "type": "event"
    },
    {
      "anonymous": false,
      "inputs": [
        {
          "indexed": true,
          "name": "channelIdentifier",
          "type": "bytes32"
        },
        {
          "indexed": true,
          "name": "beneficiary",
          "type": "address"
        },
        {
          "indexed": false,
          "name": "amount",
          "type": "uint256"
        }
      ],
      "name": "ChannelLockedReturn",
      "type": "event"
    },
    {
      "constant": false,
      "inputs": [
        {
          "name": "participant1",
          "type": "address"
        },
        {
          "name": "participant2",
          "type": "address"
        },
        {
          "name": "settle_window",
          "type": "uint256"
        }
      ],
      "name": "openChannel",
      "outputs": [
        {
          "name": "",
          "type": "bytes32"
        }
      ],
      "payable": false,
      "stateMutability": "nonpayable",
      "type": "function"
    },
    {
      "constant": false,
      "inputs": [
        {
          "name": "participant",
          "type": "address"
        },
        {
          "name": "partner",
          "type": "address"
        }
      ],
      "name": "setTotalDeposit",
      "outputs": [],
      "payable": true,
      "stateMutability": "payable",
      "type": "function"
    },
    {
      "constant": false,
      "inputs": [
        {
          "name": "participant1_address",
          "type": "address"
        },
        {
          "name": "participant1_balance",
          "type": "uint256"
        },
        {
          "name": "participant2_address",
          "type": "address"
        },
        {
          "name": "participant2_balance",
          "type": "uint256"
        },
        {
          "name": "participant1_signature",
          "type": "bytes"
        },
        {
          "name": "participant2_signature",
          "type": "bytes"
        }
      ],
      "name": "cooperativeSettle",
      "outputs": [],
      "payable": false,
      "stateMutability": "nonpayable",
      "type": "function"
    },
    {
      "constant": false,
      "inputs": [
        {
          "name": "partner",
          "type": "address"
        },
        {
          "name": "balanceHash",
          "type": "bytes32"
        },
        {
          "name": "nonce",
          "type": "uint256"
        },
        {
          "name": "signature",
          "type": "bytes"
        }
      ],
      "name": "closeChannel",
      "outputs": [],
      "payable": false,
      "stateMutability": "nonpayable",
      "type": "function"
    },
    {
      "constant": false,
      "inputs": [
        {
          "name": "closing",
          "type": "address"
        },
        {
          "name": "balanceHash",
          "type": "bytes32"
        },
        {
          "name": "nonce",
          "type": "uint256"
        },
        {
          "name": "signature",
          "type": "bytes"
        }
      ],
      "name": "nonclosingUpdateBalanceProof",
      "outputs": [],
      "payable": false,
      "stateMutability": "nonpayable",
      "type": "function"
    },
    {
      "constant": false,
      "inputs": [
        {
          "name": "participant1",
          "type": "address"
        },
        {
          "name": "participant1_transferred_amount",
          "type": "uint256"
        },
        {
          "name": "participant1_locked_amount",
          "type": "uint256"
        },
        {
          "name": "participant1_lock_id",
          "type": "uint256"
        },
        {
          "name": "participant2",
          "type": "address"
        },
        {
          "name": "participant2_transferred_amount",
          "type": "uint256"
        },
        {
          "name": "participant2_locked_amount",
          "type": "uint256"
        },
        {
          "name": "participant2_lock_id",
          "type": "uint256"
        }
      ],
      "name": "settleChannel",
      "outputs": [],
      "payable": false,
      "stateMutability": "nonpayable",
      "type": "function"
    },
    {
      "constant": false,
      "inputs": [
        {
          "name": "participant1",
          "type": "address"
        },
        {
          "name": "participant2",
          "type": "address"
        },
        {
          "name": "lockIdentifier",
          "type": "bytes32"
        }
      ],
      "name": "unlock",
      "outputs": [],
      "payable": false,
      "stateMutability": "nonpayable",
      "type": "function"
    }
  ],
  "bytecode": "0x608060405234801561001057600080fd5b5060405160608061319a833981018060405281019080805190602001909291908051906020019092919080519060200190929190505050826000806101000a81548173ffffffffffffffffffffffffffffffffffffffff021916908373ffffffffffffffffffffffffffffffffffffffff16021790555081600581905550806006819055505050506130f3806100a76000396000f3006080604052600436106100d0576000357c0100000000000000000000000000000000000000000000000000000000900463ffffffff1680630a798f24146100d55780630ab943e11461015e57806318444694146101fd5780635a1047461461022857806377c5f23c146102535780637a7ebd7b146102c457806384a769b2146103165780638568536a146103b75780638a6e8018146104ba5780639e45b478146104ff578063b4778bea1461052a578063c3fe3e2814610580578063c6bf4ec5146105d7578063ddfb48cb1461063c575b600080fd5b3480156100e157600080fd5b50610140600480360381019080803573ffffffffffffffffffffffffffffffffffffffff169060200190929190803573ffffffffffffffffffffffffffffffffffffffff169060200190929190803590602001909291905050506106dd565b60405180826000191660001916815260200191505060405180910390f35b34801561016a57600080fd5b506101fb600480360381019080803573ffffffffffffffffffffffffffffffffffffffff169060200190929190803590602001909291908035906020019092919080359060200190929190803573ffffffffffffffffffffffffffffffffffffffff169060200190929190803590602001909291908035906020019092919080359060200190929190505050610917565b005b34801561020957600080fd5b50610212610ddb565b6040518082815260200191505060405180910390f35b34801561023457600080fd5b5061023d610de1565b6040518082815260200191505060405180910390f35b34801561025f57600080fd5b506102c2600480360381019080803573ffffffffffffffffffffffffffffffffffffffff169060200190929190803573ffffffffffffffffffffffffffffffffffffffff1690602001909291908035600019169060200190929190505050610de7565b005b3480156102d057600080fd5b506102f360048036038101908080356000191690602001909291905050506113b6565b604051808360ff1660ff1681526020018281526020019250505060405180910390f35b34801561032257600080fd5b506103b5600480360381019080803573ffffffffffffffffffffffffffffffffffffffff169060200190929190803560001916906020019092919080359060200190929190803590602001908201803590602001908080601f01602080910402602001604051908101604052809392919081815260200183838082843782019150505050505091929192905050506113e7565b005b3480156103c357600080fd5b506104b8600480360381019080803573ffffffffffffffffffffffffffffffffffffffff16906020019092919080359060200190929190803573ffffffffffffffffffffffffffffffffffffffff16906020019092919080359060200190929190803590602001908201803590602001908080601f0160208091040260200160405190810160405280939291908181526020018383808284378201915050505050509192919290803590602001908201803590602001908080601f01602080910402602001604051908101604052809392919081815260200183838082843782019150505050505091929192905050506116f0565b005b3480156104c657600080fd5b506104e96004803603810190808035600019169060200190929190505050611cea565b6040518082815260200191505060405180910390f35b34801561050b57600080fd5b50610514611d02565b6040518082815260200191505060405180910390f35b61057e600480360381019080803573ffffffffffffffffffffffffffffffffffffffff169060200190929190803573ffffffffffffffffffffffffffffffffffffffff169060200190929190505050611d08565b005b34801561058c57600080fd5b50610595611e9c565b604051808273ffffffffffffffffffffffffffffffffffffffff1673ffffffffffffffffffffffffffffffffffffffff16815260200191505060405180910390f35b3480156105e357600080fd5b506106266004803603810190808035600019169060200190929190803573ffffffffffffffffffffffffffffffffffffffff169060200190929190505050611ec1565b6040518082815260200191505060405180910390f35b34801561064857600080fd5b506106db600480360381019080803573ffffffffffffffffffffffffffffffffffffffff169060200190929190803560001916906020019092919080359060200190929190803590602001908201803590602001908080601f0160208091040260200160405190810160405280939291908181526020018383808284378201915050505050509192919290505050611ee6565b005b60008060008360065481111580156106f757506005548110155b151561076b576040517f08c379a00000000000000000000000000000000000000000000000000000000081526004018080602001828103825260158152602001807f696e76616c696420736574746c652077696e646f77000000000000000000000081525060200191505060405180910390fd5b610775878761230c565b925060006002600085600019166000191681526020019081526020016000205414151561080a576040517f08c379a00000000000000000000000000000000000000000000000000000000081526004018080602001828103825260168152602001807f6368616e6e656c20616c7265616479206578697374730000000000000000000081525060200191505060405180910390fd5b6001806000828254019250508190555060015460026000856000191660001916815260200190815260200160002081905550610846878761263b565b9150600160036000846000191660001916815260200190815260200160002060000160006101000a81548160ff021916908360ff160217905550846003600084600019166000191681526020019081526020016000206002018190555081600019168673ffffffffffffffffffffffffffffffffffffffff168873ffffffffffffffffffffffffffffffffffffffff167f1dbb8128ba7369dfbdcb440570a5ac538daeaeadd800bae81f1721258e1658a4886040518082815260200191505060405180910390a45050509392505050565b60008060008060006109298d8a61263b565b9450600360008660001916600019168152602001908152602001600020935060028460000160009054906101000a900460ff1660ff161415156109d4576040517f08c379a000000000000000000000000000000000000000000000000000000000815260040180806020018281038252601d8152602001807f6368616e6e656c2073746174652073686f6c6420626520636c6f73656400000081525060200191505060405180910390fd5b438460020154101515610a4f576040517f08c379a00000000000000000000000000000000000000000000000000000000081526004018080602001828103825260208152602001807f736574746c656d656e742077696e646f772073686f756c64206265206f76657281525060200191505060405180910390fd5b8360010160008e73ffffffffffffffffffffffffffffffffffffffff1673ffffffffffffffffffffffffffffffffffffffff16815260200190815260200160002092508360010160008a73ffffffffffffffffffffffffffffffffffffffff1673ffffffffffffffffffffffffffffffffffffffff1681526020019081526020016000209150610ae1838d8d8d6127ef565b610aed828989896127ef565b610afc858e8d8d8d8c8c61294c565b90508360010160008e73ffffffffffffffffffffffffffffffffffffffff1673ffffffffffffffffffffffffffffffffffffffff1681526020019081526020016000206000808201600090556001820160006101000a81549060ff02191690556002820160009055600382016000905550508360010160008a73ffffffffffffffffffffffffffffffffffffffff1673ffffffffffffffffffffffffffffffffffffffff1681526020019081526020016000206000808201600090556001820160006101000a81549060ff0219169055600282016000905560038201600090555050600360008660001916600019168152602001908152602001600020600080820160006101000a81549060ff02191690556002820160009055505060026000610c268f8c61230c565b6000191660001916815260200190815260200160002060009055610c4c838d848b612bf3565b809950819d5050508c73ffffffffffffffffffffffffffffffffffffffff166108fc8d9081150290604051600060405180830381858888f19350505050158015610c9a573d6000803e3d6000fd5b508873ffffffffffffffffffffffffffffffffffffffff166108fc899081150290604051600060405180830381858888f19350505050158015610ce1573d6000803e3d6000fd5b50806000191685600019167f51506def4da4e4946729d5e4857c7898b5037649a12445dcca8e885afb12e4698f8f604051808373ffffffffffffffffffffffffffffffffffffffff1673ffffffffffffffffffffffffffffffffffffffff1681526020018281526020019250505060405180910390a3806000191685600019167f51506def4da4e4946729d5e4857c7898b5037649a12445dcca8e885afb12e4698b8b604051808373ffffffffffffffffffffffffffffffffffffffff1673ffffffffffffffffffffffffffffffffffffffff1681526020018281526020019250505060405180910390a350505050505050505050505050565b60055481565b60015481565b600080600060046000856000191660001916815260200190815260200160002060008773ffffffffffffffffffffffffffffffffffffffff1673ffffffffffffffffffffffffffffffffffffffff16815260200190815260200160002054925060046000856000191660001916815260200190815260200160002060008673ffffffffffffffffffffffffffffffffffffffff1673ffffffffffffffffffffffffffffffffffffffff1681526020019081526020016000205491506000809054906101000a900473ffffffffffffffffffffffffffffffffffffffff1673ffffffffffffffffffffffffffffffffffffffff1663add4c784856040518263ffffffff167c0100000000000000000000000000000000000000000000000000000000028152600401808260001916600019168152602001915050602060405180830381600087803b158015610f3a57600080fd5b505af1158015610f4e573d6000803e3d6000fd5b505050506040513d6020811015610f6457600080fd5b8101908080519060200190929190505050905060008173ffffffffffffffffffffffffffffffffffffffff1614156110e357600083111561103a578573ffffffffffffffffffffffffffffffffffffffff166108fc849081150290604051600060405180830381858888f19350505050158015610fe5573d6000803e3d6000fd5b508573ffffffffffffffffffffffffffffffffffffffff1684600019167f06fcb8f03d7121545713132681b1bf54af1ff9fcab01f34b23a6745f5ddbbce5856040518082815260200191505060405180910390a35b60008211156110de578473ffffffffffffffffffffffffffffffffffffffff166108fc839081150290604051600060405180830381858888f19350505050158015611089573d6000803e3d6000fd5b508473ffffffffffffffffffffffffffffffffffffffff1684600019167f06fcb8f03d7121545713132681b1bf54af1ff9fcab01f34b23a6745f5ddbbce5846040518082815260200191505060405180910390a35b6113ae565b8573ffffffffffffffffffffffffffffffffffffffff168173ffffffffffffffffffffffffffffffffffffffff1614156112645760008211156111bb578573ffffffffffffffffffffffffffffffffffffffff166108fc839081150290604051600060405180830381858888f19350505050158015611166573d6000803e3d6000fd5b508573ffffffffffffffffffffffffffffffffffffffff1684600019167f088f29dc1537a391127b5577fa9923ab8a3738bf3f4160d5c0ca098acec24a3e846040518082815260200191505060405180910390a35b600083111561125f578573ffffffffffffffffffffffffffffffffffffffff166108fc849081150290604051600060405180830381858888f1935050505015801561120a573d6000803e3d6000fd5b508573ffffffffffffffffffffffffffffffffffffffff1684600019167f06fcb8f03d7121545713132681b1bf54af1ff9fcab01f34b23a6745f5ddbbce5856040518082815260200191505060405180910390a35b6113ad565b6000831115611308578473ffffffffffffffffffffffffffffffffffffffff166108fc849081150290604051600060405180830381858888f193505050501580156112b3573d6000803e3d6000fd5b508473ffffffffffffffffffffffffffffffffffffffff1684600019167f088f29dc1537a391127b5577fa9923ab8a3738bf3f4160d5c0ca098acec24a3e856040518082815260200191505060405180910390a35b60008211156113ac578473ffffffffffffffffffffffffffffffffffffffff166108fc839081150290604051600060405180830381858888f19350505050158015611357573d6000803e3d6000fd5b508473ffffffffffffffffffffffffffffffffffffffff1684600019167f06fcb8f03d7121545713132681b1bf54af1ff9fcab01f34b23a6745f5ddbbce5846040518082815260200191505060405180910390a35b5b5b505050505050565b60036020528060005260406000206000915090508060000160009054906101000a900460ff16908060020154905082565b600080600080338860006113fb838361263b565b9050600160036000836000191660001916815260200190815260200160002060000160009054906101000a900460ff1660ff161415156114a3576040517f08c379a00000000000000000000000000000000000000000000000000000000081526004018080602001828103825260168152602001807f6368616e6e656c2073686f756c64206265206f70656e0000000000000000000081525060200191505060405180910390fd5b6114ad338c61263b565b965060036000886000191660001916815260200190815260200160002095508560010160008c73ffffffffffffffffffffffffffffffffffffffff1673ffffffffffffffffffffffffffffffffffffffff168152602001908152602001600020945060008911156115fb57611524878b8b8b612c7a565b93508a73ffffffffffffffffffffffffffffffffffffffff168473ffffffffffffffffffffffffffffffffffffffff161415156115ef576040517f08c379a00000000000000000000000000000000000000000000000000000000081526004018080602001828103825260298152602001807f62616c616e63652070726f6f662073686f756c64206265207369676e6564206281526020017f7920706172746e6572000000000000000000000000000000000000000000000081525060400191505060405180910390fd5b6115fa858b8b612d79565b5b60028660000160006101000a81548160ff021916908360ff16021790555060018660010160003373ffffffffffffffffffffffffffffffffffffffff1673ffffffffffffffffffffffffffffffffffffffff16815260200190815260200160002060010160006101000a81548160ff0219169083151502179055504386600201600082825401925050819055503373ffffffffffffffffffffffffffffffffffffffff1687600019167fc385db978aebc30a2ab47905160e860a190999aab78e9c8d040ca5911f83eede8c60405180826000191660001916815260200191505060405180910390a35050505050505050505050565b60008060008089886000611704838361263b565b9050600160036000836000191660001916815260200190815260200160002060000160009054906101000a900460ff1660ff161415156117ac576040517f08c379a00000000000000000000000000000000000000000000000000000000081526004018080602001828103825260168152602001807f6368616e6e656c2073686f756c64206265206f70656e0000000000000000000081525060200191505060405180910390fd5b6117b68d8c61263b565b96506117c6878e8e8e8e8e612e0f565b95508c73ffffffffffffffffffffffffffffffffffffffff168673ffffffffffffffffffffffffffffffffffffffff16141515611891576040517f08c379a000000000000000000000000000000000000000000000000000000000815260040180806020018281038252602a8152602001807f7369676e61747572652073686f756c64206265207369676e656420627920706181526020017f727469636970616e74310000000000000000000000000000000000000000000081525060400191505060405180910390fd5b61189f878e8e8e8e8d612e0f565b95508a73ffffffffffffffffffffffffffffffffffffffff168673ffffffffffffffffffffffffffffffffffffffff1614151561196a576040517f08c379a000000000000000000000000000000000000000000000000000000000815260040180806020018281038252602a8152602001807f7369676e61747572652073686f756c64206265207369676e656420627920706181526020017f727469636970616e74320000000000000000000000000000000000000000000081525060400191505060405180910390fd5b60036000886000191660001916815260200190815260200160002094508460010160008c73ffffffffffffffffffffffffffffffffffffffff1673ffffffffffffffffffffffffffffffffffffffff168152602001908152602001600020600001548560010160008f73ffffffffffffffffffffffffffffffffffffffff1673ffffffffffffffffffffffffffffffffffffffff16815260200190815260200160002060000154019350898c0184141515611ab3576040517f08c379a00000000000000000000000000000000000000000000000000000000081526004018080602001828103825260388152602001807f7468652073756d206f662062616c616e6365732073686f756c6420626520657181526020017f75616c20746f2074686520746f74616c206465706f736974000000000000000081525060400191505060405180910390fd5b8460010160008e73ffffffffffffffffffffffffffffffffffffffff1673ffffffffffffffffffffffffffffffffffffffff1681526020019081526020016000206000808201600090556001820160006101000a81549060ff02191690556002820160009055600382016000905550508460010160008c73ffffffffffffffffffffffffffffffffffffffff1673ffffffffffffffffffffffffffffffffffffffff1681526020019081526020016000206000808201600090556001820160006101000a81549060ff0219169055600282016000905560038201600090555050600360008860001916600019168152602001908152602001600020600080820160006101000a81549060ff02191690556002820160009055505060026000611bdb8f8e61230c565b600019166000191681526020019081526020016000206000905560008c1115611c46578c73ffffffffffffffffffffffffffffffffffffffff166108fc8d9081150290604051600060405180830381858888f19350505050158015611c44573d6000803e3d6000fd5b505b60008a1115611c97578a73ffffffffffffffffffffffffffffffffffffffff166108fc8b9081150290604051600060405180830381858888f19350505050158015611c95573d6000803e3d6000fd5b505b86600019167f4c4399a084cb97d6d0f51a5481485cccd0eb35cf21aec6cf5140408b1b3d1bd88d8c604051808381526020018281526020019250505060405180910390a250505050505050505050505050565b60026020528060005260406000206000915090505481565b60065481565b60008083836000611d19838361263b565b9050600160036000836000191660001916815260200190815260200160002060000160009054906101000a900460ff1660ff16141515611dc1576040517f08c379a00000000000000000000000000000000000000000000000000000000081526004018080602001828103825260168152602001807f6368616e6e656c2073686f756c64206265206f70656e0000000000000000000081525060200191505060405180910390fd5b611dcb878761263b565b945060036000866000191660001916815260200190815260200160002060010160008873ffffffffffffffffffffffffffffffffffffffff1673ffffffffffffffffffffffffffffffffffffffff16815260200190815260200160002093503484600001600082825401925050819055508673ffffffffffffffffffffffffffffffffffffffff1685600019167f0346e981e2bfa2366dc2307a8f1fa24779830a01121b1275fe565c6b98bb4d3486600001546040518082815260200191505060405180910390a350505050505050565b6000809054906101000a900473ffffffffffffffffffffffffffffffffffffffff1681565b6004602052816000526040600020602052806000526040600020600091509150505481565b60008060008087336000611efa838361263b565b9050600260036000836000191660001916815260200190815260200160002060000160009054906101000a900460ff1660ff16141515611fa2576040517f08c379a00000000000000000000000000000000000000000000000000000000081526004018080602001828103825260188152602001807f6368616e6e656c2073686f756c6420626520636c6f736564000000000000000081525060200191505060405180910390fd5b60006001028a6000191614158015611fba5750600089115b151561202e576040517f08c379a00000000000000000000000000000000000000000000000000000000081526004018080602001828103825260158152602001807f696e76616c69642062616c616e63652070726f6f66000000000000000000000081525060200191505060405180910390fd5b612038338c61263b565b965060036000886000191660001916815260200190815260200160002095508560010160008c73ffffffffffffffffffffffffffffffffffffffff1673ffffffffffffffffffffffffffffffffffffffff16815260200190815260200160002094508460010160009054906101000a900460ff161515612120576040517f08c379a00000000000000000000000000000000000000000000000000000000081526004018080602001828103825260188152602001807f706172746e65722073686f756c6420626520636c6f736572000000000000000081525060200191505060405180910390fd5b856002015443111515156121c2576040517f08c379a00000000000000000000000000000000000000000000000000000000081526004018080602001828103825260268152602001807f6368616e6e656c2073686f756c6420626520696e20736574746c656d656e742081526020017f77696e646f77000000000000000000000000000000000000000000000000000081525060400191505060405180910390fd5b6121ce878b8b8b612c7a565b93508a73ffffffffffffffffffffffffffffffffffffffff168473ffffffffffffffffffffffffffffffffffffffff16141515612299576040517f08c379a00000000000000000000000000000000000000000000000000000000081526004018080602001828103825260258152602001807f7369676e61747572652073686f756c64206265207369676e656420627920636c81526020017f6f73696e6700000000000000000000000000000000000000000000000000000081525060400191505060405180910390fd5b6122a4858b8b612d79565b3373ffffffffffffffffffffffffffffffffffffffff1687600019167f9402d324e62839355b4df4992553dcdef3d9451e87e9591f51a776388c04e4ca8c60405180826000191660001916815260200191505060405180910390a35050505050505050505050565b6000808373ffffffffffffffffffffffffffffffffffffffff161415801561234b575060008273ffffffffffffffffffffffffffffffffffffffff1614155b801561238357508173ffffffffffffffffffffffffffffffffffffffff168373ffffffffffffffffffffffffffffffffffffffff1614155b15156123f7576040517f08c379a000000000000000000000000000000000000000000000000000000000815260040180806020018281038252600d8152602001807f696e76616c696420696e7075740000000000000000000000000000000000000081525060200191505060405180910390fd5b8173ffffffffffffffffffffffffffffffffffffffff168373ffffffffffffffffffffffffffffffffffffffff161015612532578282604051602001808373ffffffffffffffffffffffffffffffffffffffff1673ffffffffffffffffffffffffffffffffffffffff166c010000000000000000000000000281526014018273ffffffffffffffffffffffffffffffffffffffff1673ffffffffffffffffffffffffffffffffffffffff166c01000000000000000000000000028152601401925050506040516020818303038152906040526040518082805190602001908083835b6020831015156124fe57805182526020820191506020810190506020830392506124d9565b6001836020036101000a03801982511681845116808217855250505050505090500191505060405180910390209050612635565b8183604051602001808373ffffffffffffffffffffffffffffffffffffffff1673ffffffffffffffffffffffffffffffffffffffff166c010000000000000000000000000281526014018273ffffffffffffffffffffffffffffffffffffffff1673ffffffffffffffffffffffffffffffffffffffff166c01000000000000000000000000028152601401925050506040516020818303038152906040526040518082805190602001908083835b60208310151561260557805182526020820191506020810190506020830392506125e0565b6001836020036101000a038019825116818451168082178552505050505050905001915050604051809103902090505b92915050565b6000806000808573ffffffffffffffffffffffffffffffffffffffff161415801561267d575060008473ffffffffffffffffffffffffffffffffffffffff1614155b80156126b557508373ffffffffffffffffffffffffffffffffffffffff168573ffffffffffffffffffffffffffffffffffffffff1614155b1515612729576040517f08c379a000000000000000000000000000000000000000000000000000000000815260040180806020018281038252600d8152602001807f696e76616c696420696e7075740000000000000000000000000000000000000081525060200191505060405180910390fd5b612733858561230c565b91506002600083600019166000191681526020019081526020016000205490508181604051602001808360001916600019168152602001828152602001925050506040516020818303038152906040526040518082805190602001908083835b6020831015156127b85780518252602082019150602081019050602083039250612793565b6001836020036101000a03801982511681845116808217855250505050505090500191505060405180910390209250505092915050565b60008060010285600201546000191614801561280b5750600084145b80156128175750600083145b80156128235750600082145b1561282d57612945565b8383836040516020018084815260200183815260200182815260200193505050506040516020818303038152906040526040518082805190602001908083835b602083101515612892578051825260208201915060208101905060208303925061286d565b6001836020036101000a038019825116818451168082178552505050505050905001915050604051809103902090508460020154600019168160001916141515612944576040517f08c379a000000000000000000000000000000000000000000000000000000000815260040180806020018281038252601e8152602001807f62616c616e636520686173682073686f756c6420626520636f7272656374000081525060200191505060405180910390fd5b5b5050505050565b6000818514156129ef578785604051602001808360001916600019168152602001828152602001925050506040516020818303038152906040526040518082805190602001908083835b6020831015156129bb5780518252602082019150602081019050602083039250612996565b6001836020036101000a03801982511681845116808217855250505050505090500191505060405180910390209050612b2e565b81851015612a94578782604051602001808360001916600019168152602001828152602001925050506040516020818303038152906040526040518082805190602001908083835b602083101515612a5c5780518252602082019150602081019050602083039250612a37565b6001836020036101000a0380198251168184511680821785525050505050509050019150506040518091039020905060009550612b2d565b8785604051602001808360001916600019168152602001828152602001925050506040516020818303038152906040526040518082805190602001908083835b602083101515612af95780518252602082019150602081019050602083039250612ad4565b6001836020036101000a03801982511681845116808217855250505050505090500191505060405180910390209050600092505b5b8560046000836000191660001916815260200190815260200160002060008973ffffffffffffffffffffffffffffffffffffffff1673ffffffffffffffffffffffffffffffffffffffff168152602001908152602001600020819055508260046000836000191660001916815260200190815260200160002060008673ffffffffffffffffffffffffffffffffffffffff1673ffffffffffffffffffffffffffffffffffffffff16815260200190815260200160002081905550979650505050505050565b600080600080612c038786612f8e565b809250819350505086811415612c435781866000015411612c28578560000154612c2a565b815b9150818860000154019350818660000154039250612c6f565b81886000015411612c58578760000154612c5a565b815b91508188600001540393508186600001540192505b505094509492505050565b60008030868686604051602001808573ffffffffffffffffffffffffffffffffffffffff1673ffffffffffffffffffffffffffffffffffffffff166c01000000000000000000000000028152601401846000191660001916815260200183600019166000191681526020018281526020019450505050506040516020818303038152906040526040518082805190602001908083835b602083101515612d355780518252602082019150602081019050602083039250612d10565b6001836020036101000a03801982511681845116808217855250505050505090500191505060405180910390209050612d6e8184612fb1565b915050949350505050565b826003015481111515612df4576040517f08c379a00000000000000000000000000000000000000000000000000000000081526004018080602001828103825260198152602001807f6e6f6e63652073686f756c64206265206d6f6e6f746f6e69630000000000000081525060200191505060405180910390fd5b81836002018160001916905550808360030181905550505050565b600080308888888888604051602001808773ffffffffffffffffffffffffffffffffffffffff1673ffffffffffffffffffffffffffffffffffffffff166c0100000000000000000000000002815260140186600019166000191681526020018573ffffffffffffffffffffffffffffffffffffffff1673ffffffffffffffffffffffffffffffffffffffff166c010000000000000000000000000281526014018481526020018373ffffffffffffffffffffffffffffffffffffffff1673ffffffffffffffffffffffffffffffffffffffff166c0100000000000000000000000002815260140182815260200196505050505050506040516020818303038152906040526040518082805190602001908083835b602083101515612f485780518252602082019150602081019050602083039250612f23565b6001836020036101000a03801982511681845116808217855250505050505090500191505060405180910390209050612f818184612fb1565b9150509695505050505050565b600080828411612fa15783830384612fa6565b828403835b915091509250929050565b60008060008060418551141515612fc757600080fd5b6020850151925060408501519150606085015160001a9050601b8160ff161015612ff257601b810190505b601b8160ff1614806130075750601c8160ff16145b151561301257600080fd5b600186828585604051600081526020016040526040518085600019166000191681526020018460ff1660ff1681526020018360001916600019168152602001826000191660001916815260200194505050505060206040516020810390808403906000865af1158015613089573d6000803e3d6000fd5b50505060206040510351935060008473ffffffffffffffffffffffffffffffffffffffff16141515156130bb57600080fd5b839350505050929150505600a165627a7a72305820f2da446d20569d65ca9ab53e9e8ce22f5f08208254548f0f05ee0bfcf56e1d5a0029",
  "source": "pragma solidity ^0.4.24;\n\n//import \"./Dice_SC.sol\" as Game;\nimport \"./Dice_SC.sol\";\nimport \"./ECVerify.sol\"; \n\ncontract Payment_ETH {\n\n    /* \n     *   constant\n     */\n\n    //address constant DUMMY_ADDRESS = 0xEeeeeEeeeEeEeeEeEeEeeEEEeeeeEeeeeeeeEEeE;\n\n    /*\n     *   state\n     */\n\n    Dice_SC public game;\n\n    struct Participant {\n        uint256 deposit;\n        bool isCloser;\n        bytes32 balanceHash;\n        uint256 nonce;\n    }\n\n    struct Channel {\n        // 1 = open, 2 = closed\n        // 0 = non-existent or settled\n        uint8 state;\n\n        mapping(address => Participant) participants;\n\n        // After opening the channel this value represents the settlement window. This is the number of blocks that need to be mined between closing the channel uncooperatively and settling the channel.\n        // After the channel has been uncooperatively closed, this value represents the block number after which settleChannel can be called.\n        uint256 settleBlock;\n    }\n\n    uint256 public channelCounter;\n\n    // The key is keccak256(lexicographic order of participant addresses)\n    mapping (bytes32 => uint256) public participantsHash_to_channelCounter;\n\n    // channel_identifier => channel. channel identifier is the keccak256(lexicographic order of participant addresses, channelCounter)\n    mapping (bytes32 => Channel) public channels;\n\n    //lockIdentifier is keccak256(channelIdentifier, lockID)\n    mapping(bytes32 => mapping (address => uint256)) public lockIdentifier_to_lockedAmount;\n\n    uint256 public settle_window_min;\n    uint256 public settle_window_max;\n\n\n    /*\n     *   constructor\n     */\n\n    constructor(\n        address _game,\n        uint256 _settle_window_min,\n        uint256 _settle_window_max \n    ) \n        public \n    {\n        game = Dice_SC(_game);\n        settle_window_min = _settle_window_min;\n        settle_window_max = _settle_window_max;\n    }\n\n    /*\n     *   modifiers\n     */\n\n    modifier isOpen (address participant, address partner) {\n        bytes32 channelIdentifier = getChannelIdentifier(participant, partner);\n        require(channels[channelIdentifier].state == 1, \"channel should be open\");\n        _;\n    }\n\n    modifier isClosed (address participant, address partner) {\n        bytes32 channelIdentifier = getChannelIdentifier(participant, partner);\n        require(channels[channelIdentifier].state == 2, \"channel should be closed\");\n        _;\n    }\n\n    modifier settleWindowValid (uint256 settleWindow) {\n        require(settleWindow <= settle_window_max && settleWindow >= settle_window_min, \"invalid settle window\");\n        _;\n    }\n\n    /*\n     *   public function\n     */\n\n    function openChannel(\n        address participant1, \n        address participant2, \n        uint256 settle_window\n    )\n        settleWindowValid(settle_window)\n        public\n        returns (bytes32) \n    {\n        bytes32 participantsHash = getParticipantsHash(participant1, participant2);\n        require(participantsHash_to_channelCounter[participantsHash] == 0, \"channel already exists\");\n\n        channelCounter += 1;\n        participantsHash_to_channelCounter[participantsHash] = channelCounter;\n\n        bytes32 channelIdentifier = getChannelIdentifier(participant1, participant2);\n        channels[channelIdentifier].state = 1;\n        channels[channelIdentifier].settleBlock = settle_window;\n\n        emit ChannelOpened(participant1, participant2, channelIdentifier, settle_window);\n    }\n\n    function setTotalDeposit(\n        address participant, \n        address partner\n    )\n        isOpen(participant, partner)\n        public\n        payable\n    {\n        bytes32 channelIdentifier = getChannelIdentifier(participant, partner);\n        Participant storage participant_struct = channels[channelIdentifier].participants[participant];\n        participant_struct.deposit += msg.value;\n\n        emit ChannelNewDeposit(channelIdentifier, participant, participant_struct.deposit);\n    }\n\n    function cooperativeSettle (\n        address participant1_address,\n        uint256 participant1_balance,\n        address participant2_address,\n        uint256 participant2_balance,\n        bytes participant1_signature,\n        bytes participant2_signature\n    )\n        isOpen (participant1_address, participant2_address)\n        public\n    {\n        bytes32 channelIdentifier = getChannelIdentifier(participant1_address, participant2_address);\n\n        address recoveredParticipant1 = recoverAddressFromCooperativeSettleSignature(\n            channelIdentifier, \n            participant1_address, \n            participant1_balance, \n            participant2_address, \n            participant2_balance, \n            participant1_signature\n        );\n        require(recoveredParticipant1 == participant1_address, \"signature should be signed by participant1\");\n\n        recoveredParticipant1 = recoverAddressFromCooperativeSettleSignature(\n            channelIdentifier, \n            participant1_address, \n            participant1_balance, \n            participant2_address, \n            participant2_balance, \n            participant2_signature\n        );\n        require(recoveredParticipant1 == participant2_address, \"signature should be signed by participant2\");\n\n        // address recoveredParticipant2 = recoverAddressFromCooperativeSettleSignature(\n        //     channelIdentifier, \n        //     participant1_address, \n        //     participant1_balance, \n        //     participant2_address, \n        //     participant2_balance, \n        //     participant2_signature\n        // );\n        // require(recoveredParticipant2 == participant2_address, \"signature should be signed by participant2\");\n\n        Channel storage channel = channels[channelIdentifier];\n\n        uint256 totalDeposit = channel.participants[participant1_address].deposit + channel.participants[participant2_address].deposit;\n        require(totalDeposit == participant1_balance + participant2_balance, \"the sum of balances should be equal to the total deposit\");\n\n        delete channel.participants[participant1_address];\n        delete channel.participants[participant2_address];\n        delete channels[channelIdentifier];\n        delete participantsHash_to_channelCounter[getParticipantsHash(participant1_address, participant2_address)];\n\n        if (participant1_balance > 0) {\n            participant1_address.transfer(participant1_balance);\n        }\n\n        if (participant2_balance > 0) {\n            participant2_address.transfer(participant2_balance);\n        }\n        \n        emit CooperativeSettled(channelIdentifier, participant1_balance, participant2_balance);\n    }\n\n    //balanceHash is keccak256(transferredAmount, lockedAmount, lockID)\n    function closeChannel (\n        address partner, \n        bytes32 balanceHash, \n        uint256 nonce, \n        bytes signature\n    )\n        isOpen (msg.sender, partner)\n        public\n    {\n        bytes32 channelIdentifier = getChannelIdentifier(msg.sender, partner);\n        Channel storage channel = channels[channelIdentifier];\n        Participant storage partnerStruct = channel.participants[partner];\n\n        if (nonce > 0) {\n            address recoveredPartner = recoverAddressFromBalanceProof(channelIdentifier, balanceHash, nonce, signature);\n            require(recoveredPartner == partner, \"balance proof should be signed by partner\");\n\n            updateParticipantBalanceProof(partnerStruct, balanceHash, nonce);\n        }\n        \n        channel.state = 2;\n        channel.participants[msg.sender].isCloser = true;\n        channel.settleBlock += uint256(block.number);\n\n        emit ChannelClosed(channelIdentifier, msg.sender, balanceHash);\n    }\n\n    //balanceHash is keccak256(transferredAmount, lockedAmount, lockID)\n    function nonclosingUpdateBalanceProof(\n        address closing, \n        bytes32 balanceHash, \n        uint256 nonce, \n        bytes signature\n    )\n        isClosed(closing, msg.sender)\n        public\n    {\n        require(balanceHash != 0x0 && nonce > 0, \"invalid balance proof\");\n\n        bytes32 channelIdentifier = getChannelIdentifier(msg.sender, closing);\n        Channel storage channel = channels[channelIdentifier];\n        Participant storage closingStruct = channel.participants[closing];\n        //require(channel.state == 2, \"channel should be closed\");\n        require(closingStruct.isCloser, \"partner should be closer\");\n        require(block.number <= channel.settleBlock, \"channel should be in settlement window\");\n\n        address recoveredClosing = recoverAddressFromBalanceProof(\n            channelIdentifier,\n            balanceHash,\n            nonce,\n            signature\n        );\n        require(recoveredClosing == closing, \"signature should be signed by closing\");\n\n        updateParticipantBalanceProof(closingStruct, balanceHash, nonce);\n\n        emit NonclosingUpdateBalanceProof(channelIdentifier, msg.sender, balanceHash);\n    }\n\n    function settleChannel(\n        address participant1, \n        uint256 participant1_transferred_amount,\n        uint256 participant1_locked_amount,\n        uint256 participant1_lock_id,\n        address participant2,\n        uint256 participant2_transferred_amount,\n        uint256 participant2_locked_amount,\n        uint256 participant2_lock_id\n    )\n        //isClosed(participant1, participant2)\n        public\n    {\n        bytes32 channelIdentifier = getChannelIdentifier(participant1, participant2);\n        Channel storage channel = channels[channelIdentifier];\n        \n        require(channel.state == 2, \"channel state shold be closed\");\n        require(channel.settleBlock < block.number, \"settlement window should be over\");\n\n        Participant storage participant1Struct = channel.participants[participant1];\n        Participant storage participant2Struct = channel.participants[participant2];\n\n        verifyBalanceHashData(\n            participant1Struct,\n            participant1_transferred_amount,\n            participant1_locked_amount,\n            participant1_lock_id\n        );\n\n        verifyBalanceHashData(\n            participant2Struct,\n            participant2_transferred_amount,\n            participant2_locked_amount,\n            participant2_lock_id\n        );\n\n        bytes32 lockIdentifier = updateLockData(\n            channelIdentifier,\n            participant1,\n            participant1_locked_amount,\n            participant1_lock_id,\n            participant2,\n            participant2_locked_amount,\n            participant2_lock_id\n        );\n\n        delete channel.participants[participant1];\n        delete channel.participants[participant2];\n        delete channels[channelIdentifier];\n        delete participantsHash_to_channelCounter[getParticipantsHash(participant1, participant2)];\n\n        // uint256 transferToParticipant1Amount;\n        // uint256 transferToParticipant2Amount;\n        (\n            participant1_transferred_amount, \n            participant2_transferred_amount\n        ) = getSettleTransferAmounts (\n            participant1Struct,\n            participant1_transferred_amount,\n            participant2Struct,\n            participant2_transferred_amount\n        );  \n        participant1.transfer(participant1_transferred_amount);\n        participant2.transfer(participant2_transferred_amount);\n\n        emit ChannelSettled(channelIdentifier, lockIdentifier, participant1, participant1_transferred_amount);\n        emit ChannelSettled(channelIdentifier, lockIdentifier, participant2, participant2_transferred_amount);\n\n        // uint256 transferToParticipant1Amount;\n        // uint256 transferToParticipant2Amount;\n        // (\n        //     transferToParticipant1Amount, \n        //     transferToParticipant2Amount\n        // ) = getSettleTransferAmounts (\n        //     participant1Struct,\n        //     participant1_transferred_amount,\n        //     participant2Struct,\n        //     participant2_transferred_amount\n        // );  \n        // participant1.transfer(transferToParticipant1Amount);\n        // participant2.transfer(transferToParticipant2Amount);\n\n        // emit ChannelSettled(channelIdentifier, lockIdentifier, participant1, transferToParticipant1Amount);\n        // emit ChannelSettled(channelIdentifier, lockIdentifier, participant2, transferToParticipant2Amount);\n    }\n\n    function unlock(\n        address participant1,\n        address participant2,\n        bytes32 lockIdentifier\n    )\n        public\n    {\n        uint256 participant1LockedAmount = lockIdentifier_to_lockedAmount[lockIdentifier][participant1];\n        uint256 participant2LockedAmount = lockIdentifier_to_lockedAmount[lockIdentifier][participant2];\n\n        address winner = game.getResult(lockIdentifier);\n\n        if (winner == 0x0) {\n            if (participant1LockedAmount > 0) {\n                participant1.transfer(participant1LockedAmount);\n                emit ChannelLockedReturn(lockIdentifier, participant1, participant1LockedAmount);\n            }\n            if (participant2LockedAmount > 0) {\n                participant2.transfer(participant2LockedAmount);\n                emit ChannelLockedReturn(lockIdentifier, participant2, participant2LockedAmount);\n            }\n        } else {\n            if (winner == participant1) {\n                if (participant2LockedAmount > 0) {\n                    participant1.transfer(participant2LockedAmount);\n                    emit ChannelLockedSent(lockIdentifier, participant1, participant2LockedAmount);\n                }\n                if (participant1LockedAmount > 0) {\n                    participant1.transfer(participant1LockedAmount);\n                    emit ChannelLockedReturn(lockIdentifier, participant1, participant1LockedAmount);\n                }\n            } else {\n                if (participant1LockedAmount > 0) {\n                    participant2.transfer(participant1LockedAmount);\n                    emit ChannelLockedSent(lockIdentifier, participant2, participant1LockedAmount);\n                }\n                if (participant2LockedAmount > 0) {\n                    participant2.transfer(participant2LockedAmount);\n                    emit ChannelLockedReturn(lockIdentifier, participant2, participant2LockedAmount);\n                }\n            }       \n        } \n    }\n\n    /*\n     *   event\n     */\n\n    event ChannelOpened(\n        address indexed participant1,\n        address indexed participant2,\n        bytes32 indexed channelIdentifier,\n        uint256 settle_timeout\n    );\n\n    event ChannelNewDeposit(\n        bytes32 indexed channel_identifier,\n        address indexed participant,\n        uint256 total_deposit\n    );\n\n    event CooperativeSettled (\n        bytes32 indexed channelIdentifier,\n        uint256 participant1_balance,\n        uint256 participant2_balance\n    );\n\n    event ChannelClosed(\n        bytes32 indexed channel_identifier,\n        address indexed closing,\n        bytes32 balanceHash\n    );\n\n    event NonclosingUpdateBalanceProof(\n        bytes32 indexed channel_identifier,\n        address indexed nonclosing,\n        bytes32 balanceHash\n    );\n\n    event ChannelSettled(\n        bytes32 indexed channelIdentifier, \n        bytes32 indexed lockedIdentifier,\n        address participant, \n        uint256 transferToParticipantAmount\n    );\n\n    event ChannelLockedSent(\n        bytes32 indexed channelIdentifier, \n        address indexed beneficiary, \n        uint256 amount\n    );\n\n    event ChannelLockedReturn(\n        bytes32 indexed channelIdentifier, \n        address indexed beneficiary, \n        uint256 amount\n    );\n\n    /*\n     *   private function\n     */\n\n    function getChannelIdentifier (\n        address participant, \n        address partner\n    ) \n        view\n        internal\n        returns (bytes32)\n    {\n        require(participant != 0x0 && partner != 0x0 && participant != partner, \"invalid input\");\n\n        bytes32 participantsHash = getParticipantsHash(participant, partner);\n        uint256 counter = participantsHash_to_channelCounter[participantsHash];\n        return keccak256((abi.encodePacked(participantsHash, counter)));\n    }    \n\n    function getParticipantsHash(\n        address participant,\n        address partner\n    )\n        pure\n        internal\n        returns (bytes32)\n    {\n        require(participant != 0x0 && partner != 0x0 && participant != partner, \"invalid input\");\n\n        if (participant < partner) {\n            return keccak256(abi.encodePacked(participant, partner));\n        } else {\n            return keccak256(abi.encodePacked(partner, participant));\n        }\n    }\n\n    function recoverAddressFromCooperativeSettleSignature (\n        bytes32 channelIdentifier,\n        address participant1,\n        uint256 participant1_balance,\n        address participant2,\n        uint256 participant2_balance,\n        bytes signature\n    )\n        view\n        internal\n        returns (address signatureAddress)\n    {\n        bytes32 messageHash = keccak256(\n            abi.encodePacked(\n                address(this), \n                channelIdentifier, \n                participant1, \n                participant1_balance, \n                participant2, \n                participant2_balance\n            )\n        );\n        signatureAddress = ECVerify.ecverify(messageHash, signature);\n    }\n\n    function recoverAddressFromBalanceProof (\n        bytes32 channelIdentifier,\n        bytes32 balanceHash,\n        uint256 nonce,\n        bytes signature\n    )\n        view\n        internal\n        returns (address signatureAddress)\n    {\n        bytes32 messageHash = keccak256(\n            abi.encodePacked(\n                address(this),\n                channelIdentifier,\n                balanceHash,\n                nonce\n            )\n        );\n        signatureAddress = ECVerify.ecverify(messageHash, signature);\n    }\n\n    function updateParticipantBalanceProof (\n        Participant storage participant,\n        bytes32 balanceHash,\n        uint256 nonce\n    )\n        internal\n    {\n        require(nonce > participant.nonce, \"nonce should be monotonic\");\n\n        participant.balanceHash = balanceHash;\n        participant.nonce = nonce;\n    }\n\n    function verifyBalanceHashData (\n        Participant storage participant,\n        uint256 transferredAmount,\n        uint256 lockedAmount,\n        uint256 lockID\n    )\n        view\n        internal\n    {\n        if (participant.balanceHash == 0x0 && transferredAmount == 0 && lockedAmount == 0 && lockID == 0) {\n            return;\n        }\n\n        bytes32 balanceHash = keccak256(abi.encodePacked(transferredAmount, lockedAmount, lockID));\n        require(balanceHash == participant.balanceHash, \"balance hash should be correct\");\n    }\n\n    function getSettleTransferAmounts (\n        Participant storage participant1,\n        uint256 participant1_transferred_amount,\n        Participant storage participant2,\n        uint256 participant2_transferred_amount\n    )\n        view\n        internal\n        returns (uint256 transferToParticipant1Amount, uint256 transferToParticipant2Amount)\n    {\n        uint256 margin;\n        uint256 min;\n        (margin, min) = magicSubtract(participant1_transferred_amount, participant2_transferred_amount);\n        if (min == participant1_transferred_amount) {\n            margin = participant2.deposit > margin ? margin : participant2.deposit;\n            transferToParticipant1Amount = participant1.deposit + margin;\n            transferToParticipant2Amount = participant2.deposit - margin;\n        } else {\n            margin = participant1.deposit > margin ? margin : participant1.deposit;\n            transferToParticipant1Amount = participant1.deposit - margin;\n            transferToParticipant2Amount = participant2.deposit + margin;\n        }\n    }\n\n    function updateLockData(\n        bytes32 channelIdentifier,\n        address participant1,\n        uint256 participant1_locked_amount,\n        uint256 participant1_lock_id,\n        address participant2,\n        uint256 participant2_locked_amount,\n        uint256 participant2_lock_id\n    )\n        internal\n        returns (bytes32 lockIdentifier)\n    {\n        if (participant1_lock_id == participant2_lock_id) {\n            lockIdentifier = keccak256(abi.encodePacked(channelIdentifier, participant1_lock_id));\n        } else if (participant1_lock_id < participant2_lock_id) {\n            lockIdentifier = keccak256(abi.encodePacked(channelIdentifier, participant2_lock_id));\n            participant1_locked_amount = 0;\n        } else {\n            lockIdentifier = keccak256(abi.encodePacked(channelIdentifier, participant1_lock_id));\n            participant2_locked_amount = 0;\n        }\n\n        lockIdentifier_to_lockedAmount[lockIdentifier][participant1] = participant1_locked_amount;\n        lockIdentifier_to_lockedAmount[lockIdentifier][participant2] = participant2_locked_amount;\n    }\n\n    function magicSubtract(\n        uint256 a,\n        uint256 b\n    )\n        pure\n        internal\n        returns (uint256, uint256)\n    {\n        return a > b ? (a - b, b) : (b - a, a);\n    }\n}",
  "sourcePath": "/Users/vincent/Develop/dice2win_blockchain_sc/contracts/Payment_ETH.sol",
  "compiler": {
    "name": "solc",
    "version": "0.4.24+commit.e67f0147.Emscripten.clang"
  },
  "schemaVersion": "2.0.1",
  "updatedAt": "2018-11-09T02:36:04.826Z"
}